{
  "contractName": "SimpleBank",
  "abi": [
    {
      "constant": true,
      "inputs": [
        {
          "name": "",
          "type": "address"
        }
      ],
      "name": "enrolled",
      "outputs": [
        {
          "name": "",
          "type": "bool"
        }
      ],
      "payable": false,
      "stateMutability": "view",
      "type": "function"
    },
    {
      "constant": false,
      "inputs": [],
      "name": "unpause",
      "outputs": [],
      "payable": false,
      "stateMutability": "nonpayable",
      "type": "function"
    },
    {
      "constant": true,
      "inputs": [
        {
          "name": "account",
          "type": "address"
        }
      ],
      "name": "isPauser",
      "outputs": [
        {
          "name": "",
          "type": "bool"
        }
      ],
      "payable": false,
      "stateMutability": "view",
      "type": "function"
    },
    {
      "constant": true,
      "inputs": [],
      "name": "myLighthouse",
      "outputs": [
        {
          "name": "",
          "type": "address"
        }
      ],
      "payable": false,
      "stateMutability": "view",
      "type": "function"
    },
    {
      "constant": true,
      "inputs": [],
      "name": "paused",
      "outputs": [
        {
          "name": "",
          "type": "bool"
        }
      ],
      "payable": false,
      "stateMutability": "view",
      "type": "function"
    },
    {
      "constant": false,
      "inputs": [],
      "name": "renouncePauser",
      "outputs": [],
      "payable": false,
      "stateMutability": "nonpayable",
      "type": "function"
    },
    {
      "constant": false,
      "inputs": [],
      "name": "renounceOwnership",
      "outputs": [],
      "payable": false,
      "stateMutability": "nonpayable",
      "type": "function"
    },
    {
      "constant": false,
      "inputs": [
        {
          "name": "account",
          "type": "address"
        }
      ],
      "name": "addPauser",
      "outputs": [],
      "payable": false,
      "stateMutability": "nonpayable",
      "type": "function"
    },
    {
      "constant": false,
      "inputs": [],
      "name": "pause",
      "outputs": [],
      "payable": false,
      "stateMutability": "nonpayable",
      "type": "function"
    },
    {
      "constant": true,
      "inputs": [],
      "name": "owner",
      "outputs": [
        {
          "name": "",
          "type": "address"
        }
      ],
      "payable": false,
      "stateMutability": "view",
      "type": "function"
    },
    {
      "constant": true,
      "inputs": [],
      "name": "isOwner",
      "outputs": [
        {
          "name": "",
          "type": "bool"
        }
      ],
      "payable": false,
      "stateMutability": "view",
      "type": "function"
    },
    {
      "constant": false,
      "inputs": [
        {
          "name": "newOwner",
          "type": "address"
        }
      ],
      "name": "transferOwnership",
      "outputs": [],
      "payable": false,
      "stateMutability": "nonpayable",
      "type": "function"
    },
    {
      "inputs": [
        {
          "name": "_myLighthouse",
          "type": "address"
        }
      ],
      "payable": false,
      "stateMutability": "nonpayable",
      "type": "constructor"
    },
    {
      "payable": true,
      "stateMutability": "payable",
      "type": "fallback"
    },
    {
      "anonymous": false,
      "inputs": [
        {
          "indexed": true,
          "name": "accountAddress",
          "type": "address"
        }
      ],
      "name": "Enrolled",
      "type": "event"
    },
    {
      "anonymous": false,
      "inputs": [
        {
          "indexed": true,
          "name": "accountAddress",
          "type": "address"
        },
        {
          "indexed": false,
          "name": "amount",
          "type": "uint256"
        },
        {
          "indexed": false,
          "name": "newBalance",
          "type": "uint256"
        }
      ],
      "name": "Deposited",
      "type": "event"
    },
    {
      "anonymous": false,
      "inputs": [
        {
          "indexed": true,
          "name": "accountAddress",
          "type": "address"
        },
        {
          "indexed": false,
          "name": "withdrawAmount",
          "type": "uint256"
        },
        {
          "indexed": false,
          "name": "newBalance",
          "type": "uint256"
        }
      ],
      "name": "Withdrawn",
      "type": "event"
    },
    {
      "anonymous": false,
      "inputs": [
        {
          "indexed": true,
          "name": "accountAddress",
          "type": "address"
        },
        {
          "indexed": false,
          "name": "balanceAtClose",
          "type": "uint256"
        }
      ],
      "name": "Closed",
      "type": "event"
    },
    {
      "anonymous": false,
      "inputs": [
        {
          "indexed": false,
          "name": "account",
          "type": "address"
        }
      ],
      "name": "Paused",
      "type": "event"
    },
    {
      "anonymous": false,
      "inputs": [
        {
          "indexed": false,
          "name": "account",
          "type": "address"
        }
      ],
      "name": "Unpaused",
      "type": "event"
    },
    {
      "anonymous": false,
      "inputs": [
        {
          "indexed": true,
          "name": "account",
          "type": "address"
        }
      ],
      "name": "PauserAdded",
      "type": "event"
    },
    {
      "anonymous": false,
      "inputs": [
        {
          "indexed": true,
          "name": "account",
          "type": "address"
        }
      ],
      "name": "PauserRemoved",
      "type": "event"
    },
    {
      "anonymous": false,
      "inputs": [
        {
          "indexed": true,
          "name": "previousOwner",
          "type": "address"
        },
        {
          "indexed": true,
          "name": "newOwner",
          "type": "address"
        }
      ],
      "name": "OwnershipTransferred",
      "type": "event"
    },
    {
      "constant": true,
      "inputs": [],
      "name": "getInterestRate",
      "outputs": [
        {
          "name": "",
          "type": "uint256"
        }
      ],
      "payable": false,
      "stateMutability": "view",
      "type": "function"
    },
    {
      "constant": false,
      "inputs": [],
      "name": "enroll",
      "outputs": [
        {
          "name": "_enrolled",
          "type": "bool"
        }
      ],
      "payable": false,
      "stateMutability": "nonpayable",
      "type": "function"
    },
    {
      "constant": false,
      "inputs": [],
      "name": "deposit",
      "outputs": [
        {
          "name": "_balance",
          "type": "uint256"
        }
      ],
      "payable": true,
      "stateMutability": "payable",
      "type": "function"
    },
    {
      "constant": false,
      "inputs": [
        {
          "name": "withdrawAmount",
          "type": "uint256"
        }
      ],
      "name": "withdraw",
      "outputs": [
        {
          "name": "_balance",
          "type": "uint256"
        }
      ],
      "payable": false,
      "stateMutability": "nonpayable",
      "type": "function"
    },
    {
      "constant": false,
      "inputs": [],
      "name": "closeAccount",
      "outputs": [
        {
          "name": "",
          "type": "bool"
        }
      ],
      "payable": false,
      "stateMutability": "nonpayable",
      "type": "function"
    },
    {
      "constant": true,
      "inputs": [],
      "name": "getAccounts",
      "outputs": [
        {
          "name": "",
          "type": "address[]"
        }
      ],
      "payable": false,
      "stateMutability": "view",
      "type": "function"
    },
    {
      "constant": true,
      "inputs": [],
      "name": "getNumberOfAccounts",
      "outputs": [
        {
          "name": "",
          "type": "uint256"
        }
      ],
      "payable": false,
      "stateMutability": "view",
      "type": "function"
    },
    {
      "constant": true,
      "inputs": [],
      "name": "getBalance",
      "outputs": [
        {
          "name": "",
          "type": "uint256"
        }
      ],
      "payable": false,
      "stateMutability": "view",
      "type": "function"
    },
    {
      "constant": true,
      "inputs": [],
      "name": "getContractBalance",
      "outputs": [
        {
          "name": "",
          "type": "uint256"
        }
      ],
      "payable": false,
      "stateMutability": "view",
      "type": "function"
    }
  ],
  "bytecode": "0x608060405260006004553480156200001657600080fd5b50604051602080620026d1833981018060405260208110156200003857600080fd5b8101908080519060200190929190505050336000806101000a81548173ffffffffffffffffffffffffffffffffffffffff021916908373ffffffffffffffffffffffffffffffffffffffff1602179055506000809054906101000a900473ffffffffffffffffffffffffffffffffffffffff1673ffffffffffffffffffffffffffffffffffffffff16600073ffffffffffffffffffffffffffffffffffffffff167f8be0079c531659141344cd1fd0a4f28419497f9722a3daafe3b4186f6b6457e060405160405180910390a36200011f3362000182640100000000026401000000009004565b6000600260006101000a81548160ff02191690831515021790555080600260016101000a81548173ffffffffffffffffffffffffffffffffffffffff021916908373ffffffffffffffffffffffffffffffffffffffff16021790555050620003ff565b620001a6816001620001ec64010000000002620021b9179091906401000000009004565b8073ffffffffffffffffffffffffffffffffffffffff167f6719d08c1888103bea251a4ed56406bd0c3e69723c8a1686e017e7bbe159b6f860405160405180910390a250565b620002078282620002db640100000000026401000000009004565b1515156200027d576040517f08c379a000000000000000000000000000000000000000000000000000000000815260040180806020018281038252601f8152602001807f526f6c65733a206163636f756e7420616c72656164792068617320726f6c650081525060200191505060405180910390fd5b60018260000160008373ffffffffffffffffffffffffffffffffffffffff1673ffffffffffffffffffffffffffffffffffffffff16815260200190815260200160002060006101000a81548160ff0219169083151502179055505050565b60008073ffffffffffffffffffffffffffffffffffffffff168273ffffffffffffffffffffffffffffffffffffffff1614151515620003a8576040517f08c379a00000000000000000000000000000000000000000000000000000000081526004018080602001828103825260228152602001807f526f6c65733a206163636f756e7420697320746865207a65726f20616464726581526020017f737300000000000000000000000000000000000000000000000000000000000081525060400191505060405180910390fd5b8260000160008373ffffffffffffffffffffffffffffffffffffffff1673ffffffffffffffffffffffffffffffffffffffff16815260200190815260200160002060009054906101000a900460ff16905092915050565b6122c2806200040f6000396000f3fe60806040526004361061011d576000357c0100000000000000000000000000000000000000000000000000000000900463ffffffff16806310eb0e0e1461012257806312065fe01461018b5780632e1a7d4d146101b6578063309e36ef146102055780633f4ba83a1461023057806346fbf68e14610247578063524704ac146102b05780635257b566146103075780635c975abb146103325780636dd22fc6146103615780636ef8d66d146103905780636f9fb98a146103a7578063715018a6146103d257806382dc1ec4146103e95780638456cb591461043a5780638a48ac03146104515780638da5cb5b146104bd5780638f32d59b14610514578063d0e30db014610543578063e65f2a7e14610561578063f2fde38b14610590575b600080fd5b34801561012e57600080fd5b506101716004803603602081101561014557600080fd5b81019080803573ffffffffffffffffffffffffffffffffffffffff1690602001909291905050506105e1565b604051808215151515815260200191505060405180910390f35b34801561019757600080fd5b506101a0610601565b6040518082815260200191505060405180910390f35b3480156101c257600080fd5b506101ef600480360360208110156101d957600080fd5b8101908080359060200190929190505050610648565b6040518082815260200191505060405180910390f35b34801561021157600080fd5b5061021a6109b5565b6040518082815260200191505060405180910390f35b34801561023c57600080fd5b50610245610a3e565b005b34801561025357600080fd5b506102966004803603602081101561026a57600080fd5b81019080803573ffffffffffffffffffffffffffffffffffffffff169060200190929190505050610be5565b604051808215151515815260200191505060405180910390f35b3480156102bc57600080fd5b506102c5610c02565b604051808273ffffffffffffffffffffffffffffffffffffffff1673ffffffffffffffffffffffffffffffffffffffff16815260200191505060405180910390f35b34801561031357600080fd5b5061031c610c28565b6040518082815260200191505060405180910390f35b34801561033e57600080fd5b50610347610d1a565b604051808215151515815260200191505060405180910390f35b34801561036d57600080fd5b50610376610d31565b604051808215151515815260200191505060405180910390f35b34801561039c57600080fd5b506103a5610fc8565b005b3480156103b357600080fd5b506103bc610fd3565b6040518082815260200191505060405180910390f35b3480156103de57600080fd5b506103e761106e565b005b3480156103f557600080fd5b506104386004803603602081101561040c57600080fd5b81019080803573ffffffffffffffffffffffffffffffffffffffff1690602001909291905050506111a9565b005b34801561044657600080fd5b5061044f611258565b005b34801561045d57600080fd5b50610466611400565b6040518080602001828103825283818151815260200191508051906020019060200280838360005b838110156104a957808201518184015260208101905061048e565b505050509050019250505060405180910390f35b3480156104c957600080fd5b506104d261150a565b604051808273ffffffffffffffffffffffffffffffffffffffff1673ffffffffffffffffffffffffffffffffffffffff16815260200191505060405180910390f35b34801561052057600080fd5b50610529611533565b604051808215151515815260200191505060405180910390f35b61054b61158a565b6040518082815260200191505060405180910390f35b34801561056d57600080fd5b5061057661187a565b604051808215151515815260200191505060405180910390f35b34801561059c57600080fd5b506105df600480360360208110156105b357600080fd5b81019080803573ffffffffffffffffffffffffffffffffffffffff169060200190929190505050611bba565b005b60066020528060005260406000206000915054906101000a900460ff1681565b6000600560003373ffffffffffffffffffffffffffffffffffffffff1673ffffffffffffffffffffffffffffffffffffffff16815260200190815260200160002054905090565b6000600660003373ffffffffffffffffffffffffffffffffffffffff1673ffffffffffffffffffffffffffffffffffffffff16815260200190815260200160002060009054906101000a900460ff16151561070b576040517f08c379a00000000000000000000000000000000000000000000000000000000081526004018080602001828103825260158152602001807f596f75206d75737420666972737420656e726f6c6c000000000000000000000081525060200191505060405180910390fd5b81600081111515610784576040517f08c379a00000000000000000000000000000000000000000000000000000000081526004018080602001828103825260208152602001807f57697468726177616c206d7573742062652067726561746572207468616e203081525060200191505060405180910390fd5b80600560003373ffffffffffffffffffffffffffffffffffffffff1673ffffffffffffffffffffffffffffffffffffffff168152602001908152602001600020541015151561083b576040517f08c379a00000000000000000000000000000000000000000000000000000000081526004018080602001828103825260148152602001807f496e73756666696369656e742062616c616e636500000000000000000000000081525060200191505060405180910390fd5b61088d83600560003373ffffffffffffffffffffffffffffffffffffffff1673ffffffffffffffffffffffffffffffffffffffff16815260200190815260200160002054611c4290919063ffffffff16565b600560003373ffffffffffffffffffffffffffffffffffffffff1673ffffffffffffffffffffffffffffffffffffffff168152602001908152602001600020819055503373ffffffffffffffffffffffffffffffffffffffff166108fc849081150290604051600060405180830381858888f19350505050158015610916573d6000803e3d6000fd5b50600560003373ffffffffffffffffffffffffffffffffffffffff1673ffffffffffffffffffffffffffffffffffffffff1681526020019081526020016000205491503373ffffffffffffffffffffffffffffffffffffffff167f92ccf450a286a957af52509bc1c9939d1a6a481783e142e41e2499f0bb66ebc68484604051808381526020018281526020019250505060405180910390a250919050565b60006109bf611533565b1515610a33576040517f08c379a00000000000000000000000000000000000000000000000000000000081526004018080602001828103825260208152602001807f4f776e61626c653a2063616c6c6572206973206e6f7420746865206f776e657281525060200191505060405180910390fd5b600380549050905090565b610a4733610be5565b1515610ae1576040517f08c379a00000000000000000000000000000000000000000000000000000000081526004018080602001828103825260308152602001807f506175736572526f6c653a2063616c6c657220646f6573206e6f74206861766581526020017f207468652050617573657220726f6c650000000000000000000000000000000081525060400191505060405180910390fd5b600260009054906101000a900460ff161515610b65576040517f08c379a00000000000000000000000000000000000000000000000000000000081526004018080602001828103825260148152602001807f5061757361626c653a206e6f742070617573656400000000000000000000000081525060200191505060405180910390fd5b6000600260006101000a81548160ff0219169083151502179055507f5db9ee0a495bf2e6ff9c91a7834c1ba4fdd244a5e8aa4e537bd38aeae4b073aa33604051808273ffffffffffffffffffffffffffffffffffffffff1673ffffffffffffffffffffffffffffffffffffffff16815260200191505060405180910390a1565b6000610bfb826001611ccd90919063ffffffff16565b9050919050565b600260019054906101000a900473ffffffffffffffffffffffffffffffffffffffff1681565b6000806000600260019054906101000a900473ffffffffffffffffffffffffffffffffffffffff1673ffffffffffffffffffffffffffffffffffffffff1663420b81f66040518163ffffffff167c0100000000000000000000000000000000000000000000000000000000028152600401604080518083038186803b158015610cb057600080fd5b505afa158015610cc4573d6000803e3d6000fd5b505050506040513d6040811015610cda57600080fd5b810190808051906020019092919080519060200190929190505050816fffffffffffffffffffffffffffffffff1691508092508193505050819250505090565b6000600260009054906101000a900460ff16905090565b6000600660003373ffffffffffffffffffffffffffffffffffffffff1673ffffffffffffffffffffffffffffffffffffffff16815260200190815260200160002060009054906101000a900460ff161515610df4576040517f08c379a00000000000000000000000000000000000000000000000000000000081526004018080602001828103825260158152602001807f596f75206d75737420666972737420656e726f6c6c000000000000000000000081525060200191505060405180910390fd5b6000600560003373ffffffffffffffffffffffffffffffffffffffff1673ffffffffffffffffffffffffffffffffffffffff1681526020019081526020016000205490506000600560003373ffffffffffffffffffffffffffffffffffffffff1673ffffffffffffffffffffffffffffffffffffffff168152602001908152602001600020819055506000600660003373ffffffffffffffffffffffffffffffffffffffff1673ffffffffffffffffffffffffffffffffffffffff16815260200190815260200160002060006101000a81548160ff0219169083151502179055506000811115610f26573373ffffffffffffffffffffffffffffffffffffffff166108fc829081150290604051600060405180830381858888f19350505050158015610f24573d6000803e3d6000fd5b505b3373ffffffffffffffffffffffffffffffffffffffff167f62e59356f995b616eafcc3bd0402c7c6f7c820e205c92ea61436902e30b4dc2e826040518082815260200191505060405180910390a2600660003373ffffffffffffffffffffffffffffffffffffffff1673ffffffffffffffffffffffffffffffffffffffff16815260200190815260200160002060009054906101000a900460ff161591505090565b610fd133611df0565b565b6000610fdd611533565b1515611051576040517f08c379a00000000000000000000000000000000000000000000000000000000081526004018080602001828103825260208152602001807f4f776e61626c653a2063616c6c6572206973206e6f7420746865206f776e657281525060200191505060405180910390fd5b3073ffffffffffffffffffffffffffffffffffffffff1631905090565b611076611533565b15156110ea576040517f08c379a00000000000000000000000000000000000000000000000000000000081526004018080602001828103825260208152602001807f4f776e61626c653a2063616c6c6572206973206e6f7420746865206f776e657281525060200191505060405180910390fd5b600073ffffffffffffffffffffffffffffffffffffffff166000809054906101000a900473ffffffffffffffffffffffffffffffffffffffff1673ffffffffffffffffffffffffffffffffffffffff167f8be0079c531659141344cd1fd0a4f28419497f9722a3daafe3b4186f6b6457e060405160405180910390a360008060006101000a81548173ffffffffffffffffffffffffffffffffffffffff021916908373ffffffffffffffffffffffffffffffffffffffff160217905550565b6111b233610be5565b151561124c576040517f08c379a00000000000000000000000000000000000000000000000000000000081526004018080602001828103825260308152602001807f506175736572526f6c653a2063616c6c657220646f6573206e6f74206861766581526020017f207468652050617573657220726f6c650000000000000000000000000000000081525060400191505060405180910390fd5b61125581611e4a565b50565b61126133610be5565b15156112fb576040517f08c379a00000000000000000000000000000000000000000000000000000000081526004018080602001828103825260308152602001807f506175736572526f6c653a2063616c6c657220646f6573206e6f74206861766581526020017f207468652050617573657220726f6c650000000000000000000000000000000081525060400191505060405180910390fd5b600260009054906101000a900460ff16151515611380576040517f08c379a00000000000000000000000000000000000000000000000000000000081526004018080602001828103825260108152602001807f5061757361626c653a207061757365640000000000000000000000000000000081525060200191505060405180910390fd5b6001600260006101000a81548160ff0219169083151502179055507f62e78cea01bee320cd4e420270b5ea74000d11b0c9f74754ebdbfc544b05a25833604051808273ffffffffffffffffffffffffffffffffffffffff1673ffffffffffffffffffffffffffffffffffffffff16815260200191505060405180910390a1565b606061140a611533565b151561147e576040517f08c379a00000000000000000000000000000000000000000000000000000000081526004018080602001828103825260208152602001807f4f776e61626c653a2063616c6c6572206973206e6f7420746865206f776e657281525060200191505060405180910390fd5b600380548060200260200160405190810160405280929190818152602001828054801561150057602002820191906000526020600020905b8160009054906101000a900473ffffffffffffffffffffffffffffffffffffffff1673ffffffffffffffffffffffffffffffffffffffff16815260200190600101908083116114b6575b5050505050905090565b60008060009054906101000a900473ffffffffffffffffffffffffffffffffffffffff16905090565b60008060009054906101000a900473ffffffffffffffffffffffffffffffffffffffff1673ffffffffffffffffffffffffffffffffffffffff163373ffffffffffffffffffffffffffffffffffffffff1614905090565b6000600660003373ffffffffffffffffffffffffffffffffffffffff1673ffffffffffffffffffffffffffffffffffffffff16815260200190815260200160002060009054906101000a900460ff16151561164d576040517f08c379a00000000000000000000000000000000000000000000000000000000081526004018080602001828103825260158152602001807f596f75206d75737420666972737420656e726f6c6c000000000000000000000081525060200191505060405180910390fd5b600260009054906101000a900460ff161515156116d2576040517f08c379a00000000000000000000000000000000000000000000000000000000081526004018080602001828103825260108152602001807f5061757361626c653a207061757365640000000000000000000000000000000081525060200191505060405180910390fd5b60003411151561174a576040517f08c379a000000000000000000000000000000000000000000000000000000000815260040180806020018281038252601e8152602001807f4465706f736974206d7573742062652067726561746572207468616e2030000081525060200191505060405180910390fd5b61179c34600560003373ffffffffffffffffffffffffffffffffffffffff1673ffffffffffffffffffffffffffffffffffffffff16815260200190815260200160002054611ea490919063ffffffff16565b600560003373ffffffffffffffffffffffffffffffffffffffff1673ffffffffffffffffffffffffffffffffffffffff16815260200190815260200160002081905550600560003373ffffffffffffffffffffffffffffffffffffffff1673ffffffffffffffffffffffffffffffffffffffff1681526020019081526020016000205490503373ffffffffffffffffffffffffffffffffffffffff167f73a19dd210f1a7f902193214c0ee91dd35ee5b4d920cba8d519eca65a7b488ca3483604051808381526020018281526020019250505060405180910390a290565b60008073ffffffffffffffffffffffffffffffffffffffff163373ffffffffffffffffffffffffffffffffffffffff1614151515611920576040517f08c379a00000000000000000000000000000000000000000000000000000000081526004018080602001828103825260108152602001807f496e76616c696420616464726573732e0000000000000000000000000000000081525060200191505060405180910390fd5b600660003373ffffffffffffffffffffffffffffffffffffffff1673ffffffffffffffffffffffffffffffffffffffff16815260200190815260200160002060009054906101000a900460ff161515156119e2576040517f08c379a00000000000000000000000000000000000000000000000000000000081526004018080602001828103825260118152602001807f416c726561647920656e726f6c6c65642e00000000000000000000000000000081525060200191505060405180910390fd5b600260009054906101000a900460ff16151515611a67576040517f08c379a00000000000000000000000000000000000000000000000000000000081526004018080602001828103825260108152602001807f5061757361626c653a207061757365640000000000000000000000000000000081525060200191505060405180910390fd5b6001600660003373ffffffffffffffffffffffffffffffffffffffff1673ffffffffffffffffffffffffffffffffffffffff16815260200190815260200160002060006101000a81548160ff02191690831515021790555060033390806001815401808255809150509060018203906000526020600020016000909192909190916101000a81548173ffffffffffffffffffffffffffffffffffffffff021916908373ffffffffffffffffffffffffffffffffffffffff16021790555050600660003373ffffffffffffffffffffffffffffffffffffffff1673ffffffffffffffffffffffffffffffffffffffff16815260200190815260200160002060009054906101000a900460ff1690503373ffffffffffffffffffffffffffffffffffffffff167f6132d0e5700fe03060d64172a9ce706f525f7dfacb454a300ba78f4b50fc872260405160405180910390a290565b611bc2611533565b1515611c36576040517f08c379a00000000000000000000000000000000000000000000000000000000081526004018080602001828103825260208152602001807f4f776e61626c653a2063616c6c6572206973206e6f7420746865206f776e657281525060200191505060405180910390fd5b611c3f81611f2e565b50565b6000828211151515611cbc576040517f08c379a000000000000000000000000000000000000000000000000000000000815260040180806020018281038252601e8152602001807f536166654d6174683a207375627472616374696f6e206f766572666c6f77000081525060200191505060405180910390fd5b600082840390508091505092915050565b60008073ffffffffffffffffffffffffffffffffffffffff168273ffffffffffffffffffffffffffffffffffffffff1614151515611d99576040517f08c379a00000000000000000000000000000000000000000000000000000000081526004018080602001828103825260228152602001807f526f6c65733a206163636f756e7420697320746865207a65726f20616464726581526020017f737300000000000000000000000000000000000000000000000000000000000081525060400191505060405180910390fd5b8260000160008373ffffffffffffffffffffffffffffffffffffffff1673ffffffffffffffffffffffffffffffffffffffff16815260200190815260200160002060009054906101000a900460ff16905092915050565b611e048160016120b790919063ffffffff16565b8073ffffffffffffffffffffffffffffffffffffffff167fcd265ebaf09df2871cc7bd4133404a235ba12eff2041bb89d9c714a2621c7c7e60405160405180910390a250565b611e5e8160016121b990919063ffffffff16565b8073ffffffffffffffffffffffffffffffffffffffff167f6719d08c1888103bea251a4ed56406bd0c3e69723c8a1686e017e7bbe159b6f860405160405180910390a250565b6000808284019050838110151515611f24576040517f08c379a000000000000000000000000000000000000000000000000000000000815260040180806020018281038252601b8152602001807f536166654d6174683a206164646974696f6e206f766572666c6f77000000000081525060200191505060405180910390fd5b8091505092915050565b600073ffffffffffffffffffffffffffffffffffffffff168173ffffffffffffffffffffffffffffffffffffffff1614151515611ff9576040517f08c379a00000000000000000000000000000000000000000000000000000000081526004018080602001828103825260268152602001807f4f776e61626c653a206e6577206f776e657220697320746865207a65726f206181526020017f646472657373000000000000000000000000000000000000000000000000000081525060400191505060405180910390fd5b8073ffffffffffffffffffffffffffffffffffffffff166000809054906101000a900473ffffffffffffffffffffffffffffffffffffffff1673ffffffffffffffffffffffffffffffffffffffff167f8be0079c531659141344cd1fd0a4f28419497f9722a3daafe3b4186f6b6457e060405160405180910390a3806000806101000a81548173ffffffffffffffffffffffffffffffffffffffff021916908373ffffffffffffffffffffffffffffffffffffffff16021790555050565b6120c18282611ccd565b151561215b576040517f08c379a00000000000000000000000000000000000000000000000000000000081526004018080602001828103825260218152602001807f526f6c65733a206163636f756e7420646f6573206e6f74206861766520726f6c81526020017f650000000000000000000000000000000000000000000000000000000000000081525060400191505060405180910390fd5b60008260000160008373ffffffffffffffffffffffffffffffffffffffff1673ffffffffffffffffffffffffffffffffffffffff16815260200190815260200160002060006101000a81548160ff0219169083151502179055505050565b6121c38282611ccd565b151515612238576040517f08c379a000000000000000000000000000000000000000000000000000000000815260040180806020018281038252601f8152602001807f526f6c65733a206163636f756e7420616c72656164792068617320726f6c650081525060200191505060405180910390fd5b60018260000160008373ffffffffffffffffffffffffffffffffffffffff1673ffffffffffffffffffffffffffffffffffffffff16815260200190815260200160002060006101000a81548160ff021916908315150217905550505056fea165627a7a723058208a8d78ca2b0564dd3bac71ec5ddf3cb7f70f5835ea0f0550c52aa4bdf2c11c510029",
  "source": "pragma solidity ^0.5.0;\r\n\r\nimport 'openzeppelin-solidity/contracts/ownership/Ownable.sol';\r\nimport 'openzeppelin-solidity/contracts/math/SafeMath.sol';\r\nimport 'openzeppelin-solidity/contracts/lifecycle/Pausable.sol';\r\nimport \"../contracts/Ilighthouse.sol\"; // Rhombus oracle\r\n\r\n/// @author David Noel\r\n/// @title A bank contract that pays its users interest on a daily basis.\r\ncontract SimpleBank is Ownable, Pausable {\r\n    using SafeMath for uint256;\r\n\r\n    //\r\n    // State variables\r\n    //\r\n    // Interest rate Oracle\r\n    ILighthouse  public myLighthouse;\r\n    // Array of users registered\r\n    address[] private accounts;\r\n    // Holds number of registered users\r\n    uint private numAccounts = 0;\r\n\r\n    /* Protect our users balance from being viewable from other contracts. */\r\n    mapping (address => uint) private balances;\r\n\r\n    /* Getter function to allow contracts to be able to see if a user is enrolled. */\r\n    mapping (address => bool) public enrolled;\r\n\r\n    //\r\n    // Events - publicize actions to external listeners\r\n    //\r\n\r\n    /* When a user signs up */\r\n    event Enrolled(address indexed accountAddress);\r\n\r\n    /* When a user makes a deposit */\r\n    event Deposited(address indexed accountAddress, uint amount, uint newBalance);\r\n\r\n    /* When a user makes a withdrawal */\r\n    event Withdrawn(address indexed accountAddress, uint withdrawAmount, uint newBalance);\r\n\r\n    /* When a user closes their account */\r\n    event Closed(address indexed accountAddress, uint balanceAtClose);\r\n\r\n    //\r\n    // Modifiers\r\n    //\r\n\r\n    modifier isEnrolled(){\r\n        require(enrolled[msg.sender], \"You must first enroll\");\r\n        _;\r\n    }\r\n\r\n    modifier checkEnroll(){\r\n        require(msg.sender != address(0),\"Invalid address.\");\r\n        require(!enrolled[msg.sender], \"Already enrolled.\");\r\n        _;\r\n    }\r\n\r\n    modifier checkWithdraw(uint withdrawAmount){\r\n        require(withdrawAmount > 0, \"Withrawal must be greater than 0\");\r\n        require(balances[msg.sender] >= withdrawAmount, \"Insufficient balance\");\r\n        _;\r\n    }\r\n\r\n    constructor(ILighthouse _myLighthouse) public {\r\n        myLighthouse = _myLighthouse;\r\n    }\r\n\r\n    //\r\n    // Functions\r\n    //\r\n\r\n    function getInterestRate() public view returns(uint){\r\n        uint interestRate;\r\n        bool ok;\r\n        (interestRate,ok) = myLighthouse.peekData(); // obtain random number from Rhombus Lighthouse\r\n        return interestRate;\r\n    }\r\n\r\n    /// @notice Enroll a customer with the bank\r\n    /// @return The users enrolled status\r\n    function enroll() public checkEnroll whenNotPaused returns (bool _enrolled){\r\n        enrolled[msg.sender] = true;\r\n        accounts.push(msg.sender);\r\n        _enrolled = enrolled[msg.sender];\r\n        emit Enrolled(msg.sender);\r\n    }\r\n\r\n    /// @notice Deposit ether into bank\r\n    /// @return The balance of the user after the deposit is made\r\n    // Users should be enrolled before they can make deposits\r\n    function deposit() external payable isEnrolled whenNotPaused returns (uint _balance) {\r\n        require(msg.value > 0, \"Deposit must be greater than 0\");\r\n        balances[msg.sender] = balances[msg.sender].add(msg.value);\r\n        _balance = balances[msg.sender];\r\n        emit Deposited(msg.sender, msg.value, _balance);\r\n    }\r\n\r\n    /// @notice Withdraw ether from bank\r\n    /// @dev This does not return any excess ether sent to it\r\n    /// @param withdrawAmount amount you want to withdraw\r\n    /// @return The balance remaining for the user\r\n    // checks-effects-interaction pattern to prevent re-entrancy\r\n    function withdraw(uint withdrawAmount) external isEnrolled checkWithdraw(withdrawAmount) returns (uint _balance) {\r\n        balances[msg.sender] = balances[msg.sender].sub(withdrawAmount);\r\n        msg.sender.transfer(withdrawAmount);\r\n        _balance = balances[msg.sender];\r\n        emit Withdrawn(msg.sender, withdrawAmount, _balance);\r\n    }\r\n\r\n    /// @notice Close bank account and return all user's balance to them.\r\n    /// @return balance of user\r\n    // checks-effects-interaction pattern to prevent re-entrancy\r\n    function closeAccount() external isEnrolled returns (bool) {\r\n        uint totalBalance = balances[msg.sender];\r\n        balances[msg.sender] = 0;\r\n        enrolled[msg.sender] = false;\r\n        if(totalBalance > 0){\r\n            msg.sender.transfer(totalBalance);\r\n        }\r\n        emit Closed(msg.sender, totalBalance);\r\n        return !enrolled[msg.sender];\r\n    }\r\n\r\n    /// @notice Get all registered accounts\r\n    /// @return Array of accounts\r\n    function getAccounts() public view onlyOwner returns (address[] memory) {\r\n        return accounts;\r\n    }\r\n\r\n    /// @notice Get number of registered accounts.\r\n    /// @return Number of accounts.\r\n    function getNumberOfAccounts() public view onlyOwner returns (uint) {\r\n        return accounts.length;\r\n    }\r\n\r\n    /// @notice Get balance\r\n    /// @return The balance of the user\r\n    function getBalance() public view returns (uint) {\r\n        return balances[msg.sender];\r\n    }\r\n\r\n    /// @notice Get balance of contract\r\n    /// @return The balance of the contract\r\n    function getContractBalance() public view onlyOwner returns(uint) {\r\n        return address(this).balance;\r\n    }\r\n\r\n    // Fallback function - Called if other functions don't match call or\r\n    // sent ether without data\r\n    // Typically, called when invalid data is sent\r\n    // Added so ether sent to this contract is reverted if the contract fails\r\n    // otherwise, the sender's money is transferred to contract\r\n    function() external payable {\r\n        // require(msg.data.length == 0,\"no data sent with message\");\r\n        // emit Deposited\r\n        revert();\r\n    }\r\n}\r\n",
  "sourcePath": "C:/Users/David/Documents/Projects/finalproject/simple-bank-exercise-atlanticstarr1/contracts/SimpleBank.sol",
  "compiler": {
    "name": "solc",
    "version": "0.5.0+commit.1d4f565a.Emscripten.clang"
  },
  "schemaVersion": "3.0.9",
  "updatedAt": "2019-06-13T05:17:47.204Z",
  "devdoc": {
    "methods": {
      "closeAccount()": {
        "return": "balance of user"
      },
      "deposit()": {
        "return": "The balance of the user after the deposit is made"
      },
      "enroll()": {
        "return": "The users enrolled status"
      },
      "getAccounts()": {
        "return": "Array of accounts"
      },
      "getBalance()": {
        "return": "The balance of the user"
      },
      "getContractBalance()": {
        "return": "The balance of the contract"
      },
      "getNumberOfAccounts()": {
        "return": "Number of accounts."
      },
      "isOwner()": {
        "details": "Returns true if the caller is the current owner.\r"
      },
      "owner()": {
        "details": "Returns the address of the current owner.\r"
      },
      "pause()": {
        "details": "Called by a pauser to pause, triggers stopped state.\r"
      },
      "paused()": {
        "details": "Returns true if the contract is paused, and false otherwise.\r"
      },
      "renounceOwnership()": {
        "details": "Leaves the contract without owner. It will not be possible to call\r `onlyOwner` functions anymore. Can only be called by the current owner.\r      * > Note: Renouncing ownership will leave the contract without an owner,\r thereby removing any functionality that is only available to the owner.\r"
      },
      "transferOwnership(address)": {
        "details": "Transfers ownership of the contract to a new account (`newOwner`).\r Can only be called by the current owner.\r"
      },
      "unpause()": {
        "details": "Called by a pauser to unpause, returns to normal state.\r"
      },
      "withdraw(uint256)": {
        "return": "The balance remaining for the user"
      }
    },
    "title": "A bank contract that pays its users interest on a daily basis."
  },
  "userdoc": {
    "methods": {}
  }
}