{
  "contractName": "SimpleBank",
  "abi": [
    {
      "constant": true,
      "inputs": [],
      "name": "tenCents",
      "outputs": [
        {
          "name": "",
          "type": "uint256"
        }
      ],
      "payable": false,
      "stateMutability": "view",
      "type": "function"
    },
    {
      "constant": true,
      "inputs": [
        {
          "name": "",
          "type": "address"
        }
      ],
      "name": "enrolled",
      "outputs": [
        {
          "name": "",
          "type": "bool"
        }
      ],
      "payable": false,
      "stateMutability": "view",
      "type": "function"
    },
    {
      "constant": false,
      "inputs": [],
      "name": "unpause",
      "outputs": [],
      "payable": false,
      "stateMutability": "nonpayable",
      "type": "function"
    },
    {
      "constant": true,
      "inputs": [
        {
          "name": "account",
          "type": "address"
        }
      ],
      "name": "isPauser",
      "outputs": [
        {
          "name": "",
          "type": "bool"
        }
      ],
      "payable": false,
      "stateMutability": "view",
      "type": "function"
    },
    {
      "constant": true,
      "inputs": [],
      "name": "myLighthouse",
      "outputs": [
        {
          "name": "",
          "type": "address"
        }
      ],
      "payable": false,
      "stateMutability": "view",
      "type": "function"
    },
    {
      "constant": true,
      "inputs": [],
      "name": "paused",
      "outputs": [
        {
          "name": "",
          "type": "bool"
        }
      ],
      "payable": false,
      "stateMutability": "view",
      "type": "function"
    },
    {
      "constant": false,
      "inputs": [],
      "name": "renouncePauser",
      "outputs": [],
      "payable": false,
      "stateMutability": "nonpayable",
      "type": "function"
    },
    {
      "constant": false,
      "inputs": [],
      "name": "renounceOwnership",
      "outputs": [],
      "payable": false,
      "stateMutability": "nonpayable",
      "type": "function"
    },
    {
      "constant": true,
      "inputs": [],
      "name": "interestRate",
      "outputs": [
        {
          "name": "",
          "type": "uint256"
        }
      ],
      "payable": false,
      "stateMutability": "view",
      "type": "function"
    },
    {
      "constant": false,
      "inputs": [
        {
          "name": "account",
          "type": "address"
        }
      ],
      "name": "addPauser",
      "outputs": [],
      "payable": false,
      "stateMutability": "nonpayable",
      "type": "function"
    },
    {
      "constant": false,
      "inputs": [],
      "name": "pause",
      "outputs": [],
      "payable": false,
      "stateMutability": "nonpayable",
      "type": "function"
    },
    {
      "constant": true,
      "inputs": [],
      "name": "owner",
      "outputs": [
        {
          "name": "",
          "type": "address"
        }
      ],
      "payable": false,
      "stateMutability": "view",
      "type": "function"
    },
    {
      "constant": true,
      "inputs": [],
      "name": "isOwner",
      "outputs": [
        {
          "name": "",
          "type": "bool"
        }
      ],
      "payable": false,
      "stateMutability": "view",
      "type": "function"
    },
    {
      "constant": true,
      "inputs": [],
      "name": "interestRunning",
      "outputs": [
        {
          "name": "",
          "type": "bool"
        }
      ],
      "payable": false,
      "stateMutability": "view",
      "type": "function"
    },
    {
      "constant": true,
      "inputs": [],
      "name": "minBalanceEth",
      "outputs": [
        {
          "name": "",
          "type": "uint256"
        }
      ],
      "payable": false,
      "stateMutability": "view",
      "type": "function"
    },
    {
      "constant": true,
      "inputs": [],
      "name": "identify",
      "outputs": [
        {
          "name": "",
          "type": "uint256"
        }
      ],
      "payable": false,
      "stateMutability": "pure",
      "type": "function"
    },
    {
      "constant": false,
      "inputs": [
        {
          "name": "newOwner",
          "type": "address"
        }
      ],
      "name": "transferOwnership",
      "outputs": [],
      "payable": false,
      "stateMutability": "nonpayable",
      "type": "function"
    },
    {
      "constant": true,
      "inputs": [],
      "name": "minBalanceUsd",
      "outputs": [
        {
          "name": "",
          "type": "uint256"
        }
      ],
      "payable": false,
      "stateMutability": "view",
      "type": "function"
    },
    {
      "inputs": [
        {
          "name": "_myLighthouse",
          "type": "address"
        }
      ],
      "payable": false,
      "stateMutability": "nonpayable",
      "type": "constructor"
    },
    {
      "payable": true,
      "stateMutability": "payable",
      "type": "fallback"
    },
    {
      "anonymous": false,
      "inputs": [
        {
          "indexed": true,
          "name": "accountAddress",
          "type": "address"
        }
      ],
      "name": "Enrolled",
      "type": "event"
    },
    {
      "anonymous": false,
      "inputs": [
        {
          "indexed": true,
          "name": "accountAddress",
          "type": "address"
        },
        {
          "indexed": false,
          "name": "amount",
          "type": "uint256"
        }
      ],
      "name": "Deposited",
      "type": "event"
    },
    {
      "anonymous": false,
      "inputs": [
        {
          "indexed": true,
          "name": "accountAddress",
          "type": "address"
        },
        {
          "indexed": false,
          "name": "withdrawAmount",
          "type": "uint256"
        },
        {
          "indexed": false,
          "name": "newBalance",
          "type": "uint256"
        }
      ],
      "name": "Withdrawn",
      "type": "event"
    },
    {
      "anonymous": false,
      "inputs": [
        {
          "indexed": true,
          "name": "accountAddress",
          "type": "address"
        },
        {
          "indexed": false,
          "name": "balanceAtClose",
          "type": "uint256"
        }
      ],
      "name": "ClosedAccount",
      "type": "event"
    },
    {
      "anonymous": false,
      "inputs": [],
      "name": "InterestStarted",
      "type": "event"
    },
    {
      "anonymous": false,
      "inputs": [],
      "name": "InterestStopped",
      "type": "event"
    },
    {
      "anonymous": false,
      "inputs": [
        {
          "indexed": false,
          "name": "_totalInterestPaid",
          "type": "uint256"
        }
      ],
      "name": "InterestPaid",
      "type": "event"
    },
    {
      "anonymous": false,
      "inputs": [
        {
          "indexed": false,
          "name": "_tenCentsEth",
          "type": "uint256"
        }
      ],
      "name": "Poked",
      "type": "event"
    },
    {
      "anonymous": false,
      "inputs": [],
      "name": "OracleDataNotValid",
      "type": "event"
    },
    {
      "anonymous": false,
      "inputs": [
        {
          "indexed": false,
          "name": "account",
          "type": "address"
        }
      ],
      "name": "Paused",
      "type": "event"
    },
    {
      "anonymous": false,
      "inputs": [
        {
          "indexed": false,
          "name": "account",
          "type": "address"
        }
      ],
      "name": "Unpaused",
      "type": "event"
    },
    {
      "anonymous": false,
      "inputs": [
        {
          "indexed": true,
          "name": "account",
          "type": "address"
        }
      ],
      "name": "PauserAdded",
      "type": "event"
    },
    {
      "anonymous": false,
      "inputs": [
        {
          "indexed": true,
          "name": "account",
          "type": "address"
        }
      ],
      "name": "PauserRemoved",
      "type": "event"
    },
    {
      "anonymous": false,
      "inputs": [
        {
          "indexed": true,
          "name": "previousOwner",
          "type": "address"
        },
        {
          "indexed": true,
          "name": "newOwner",
          "type": "address"
        }
      ],
      "name": "OwnershipTransferred",
      "type": "event"
    },
    {
      "constant": false,
      "inputs": [],
      "name": "enroll",
      "outputs": [
        {
          "name": "_enrolled",
          "type": "bool"
        }
      ],
      "payable": false,
      "stateMutability": "nonpayable",
      "type": "function"
    },
    {
      "constant": false,
      "inputs": [],
      "name": "deposit",
      "outputs": [
        {
          "name": "_balance",
          "type": "uint256"
        }
      ],
      "payable": true,
      "stateMutability": "payable",
      "type": "function"
    },
    {
      "constant": false,
      "inputs": [
        {
          "name": "withdrawAmount",
          "type": "uint256"
        }
      ],
      "name": "withdraw",
      "outputs": [
        {
          "name": "_balance",
          "type": "uint256"
        }
      ],
      "payable": false,
      "stateMutability": "nonpayable",
      "type": "function"
    },
    {
      "constant": false,
      "inputs": [],
      "name": "closeAccount",
      "outputs": [
        {
          "name": "",
          "type": "bool"
        }
      ],
      "payable": false,
      "stateMutability": "nonpayable",
      "type": "function"
    },
    {
      "constant": true,
      "inputs": [],
      "name": "getBalance",
      "outputs": [
        {
          "name": "",
          "type": "uint256"
        }
      ],
      "payable": false,
      "stateMutability": "view",
      "type": "function"
    },
    {
      "constant": true,
      "inputs": [],
      "name": "getAccounts",
      "outputs": [
        {
          "name": "",
          "type": "address[]"
        }
      ],
      "payable": false,
      "stateMutability": "view",
      "type": "function"
    },
    {
      "constant": true,
      "inputs": [],
      "name": "getNumAccounts",
      "outputs": [
        {
          "name": "",
          "type": "uint256"
        }
      ],
      "payable": false,
      "stateMutability": "view",
      "type": "function"
    },
    {
      "constant": true,
      "inputs": [],
      "name": "getContractAddress",
      "outputs": [
        {
          "name": "",
          "type": "address"
        }
      ],
      "payable": false,
      "stateMutability": "view",
      "type": "function"
    },
    {
      "constant": true,
      "inputs": [],
      "name": "getContractBalance",
      "outputs": [
        {
          "name": "",
          "type": "uint256"
        }
      ],
      "payable": false,
      "stateMutability": "view",
      "type": "function"
    },
    {
      "constant": false,
      "inputs": [
        {
          "name": "_rate",
          "type": "uint256"
        }
      ],
      "name": "setInterestRate",
      "outputs": [],
      "payable": false,
      "stateMutability": "nonpayable",
      "type": "function"
    },
    {
      "constant": false,
      "inputs": [
        {
          "name": "_minBalance",
          "type": "uint256"
        }
      ],
      "name": "setMinBalance",
      "outputs": [],
      "payable": false,
      "stateMutability": "nonpayable",
      "type": "function"
    },
    {
      "constant": false,
      "inputs": [],
      "name": "startPayments",
      "outputs": [],
      "payable": false,
      "stateMutability": "nonpayable",
      "type": "function"
    },
    {
      "constant": false,
      "inputs": [],
      "name": "stopPayments",
      "outputs": [],
      "payable": false,
      "stateMutability": "nonpayable",
      "type": "function"
    },
    {
      "constant": false,
      "inputs": [],
      "name": "pauseContract",
      "outputs": [],
      "payable": false,
      "stateMutability": "nonpayable",
      "type": "function"
    },
    {
      "constant": false,
      "inputs": [],
      "name": "unPauseContract",
      "outputs": [],
      "payable": false,
      "stateMutability": "nonpayable",
      "type": "function"
    },
    {
      "constant": false,
      "inputs": [],
      "name": "poke",
      "outputs": [],
      "payable": false,
      "stateMutability": "nonpayable",
      "type": "function"
    },
    {
      "constant": false,
      "inputs": [],
      "name": "payInterest",
      "outputs": [],
      "payable": false,
      "stateMutability": "nonpayable",
      "type": "function"
    }
  ],
  "bytecode": "0x608060405260038055600160045566012c221cc6a0006006553480156200002557600080fd5b5060405160208062003a41833981018060405260208110156200004757600080fd5b8101908080519060200190929190505050336000806101000a81548173ffffffffffffffffffffffffffffffffffffffff021916908373ffffffffffffffffffffffffffffffffffffffff1602179055506000809054906101000a900473ffffffffffffffffffffffffffffffffffffffff1673ffffffffffffffffffffffffffffffffffffffff16600073ffffffffffffffffffffffffffffffffffffffff167f8be0079c531659141344cd1fd0a4f28419497f9722a3daafe3b4186f6b6457e060405160405180910390a36200012533620001a860201b60201c565b6000600260006101000a81548160ff02191690831515021790555080600860016101000a81548173ffffffffffffffffffffffffffffffffffffffff021916908373ffffffffffffffffffffffffffffffffffffffff160217905550620001916200020960201b60201c565b620001a16200021b60201b60201c565b506200059c565b620001c38160016200038160201b6200325c1790919060201c565b8073ffffffffffffffffffffffffffffffffffffffff167f6719d08c1888103bea251a4ed56406bd0c3e69723c8a1686e017e7bbe159b6f860405160405180910390a250565b600654600a6004540202600581905550565b6200022b6200046560201b60201c565b6200029e576040517f08c379a00000000000000000000000000000000000000000000000000000000081526004018080602001828103825260208152602001807f4f776e61626c653a2063616c6c6572206973206e6f7420746865206f776e657281525060200191505060405180910390fd5b600260009054906101000a900460ff161562000322576040517f08c379a00000000000000000000000000000000000000000000000000000000081526004018080602001828103825260108152602001807f5061757361626c653a207061757365640000000000000000000000000000000081525060200191505060405180910390fd5b600860009054906101000a900460ff166200037f576001600860006101000a81548160ff0219169083151502179055507f1d110ef6d9298f409fa8c2070f35bb4346254ce1a8ad58a4d0ca74128736e89860405160405180910390a15b565b620003938282620004bc60201b60201c565b1562000407576040517f08c379a000000000000000000000000000000000000000000000000000000000815260040180806020018281038252601f8152602001807f526f6c65733a206163636f756e7420616c72656164792068617320726f6c650081525060200191505060405180910390fd5b60018260000160008373ffffffffffffffffffffffffffffffffffffffff1673ffffffffffffffffffffffffffffffffffffffff16815260200190815260200160002060006101000a81548160ff0219169083151502179055505050565b60008060009054906101000a900473ffffffffffffffffffffffffffffffffffffffff1673ffffffffffffffffffffffffffffffffffffffff163373ffffffffffffffffffffffffffffffffffffffff1614905090565b60008073ffffffffffffffffffffffffffffffffffffffff168273ffffffffffffffffffffffffffffffffffffffff16141562000545576040517f08c379a000000000000000000000000000000000000000000000000000000000815260040180806020018281038252602281526020018062003a1f6022913960400191505060405180910390fd5b8260000160008373ffffffffffffffffffffffffffffffffffffffff1673ffffffffffffffffffffffffffffffffffffffff16815260200190815260200160002060009054906101000a900460ff16905092915050565b61347380620005ac6000396000f3fe6080604052600436106102045760003560e01c806382dc1ec411610118578063a9713d7f116100a0578063e65f2a7e1161006f578063e65f2a7e146108d1578063eeb7286614610900578063f2fde38b1461092b578063f55487d61461097c578063f9b6a796146109a757610204565b8063a9713d7f14610836578063bac1520314610861578063c91d956c14610878578063d0e30db0146108b357610204565b80638da5cb5b116100e75780638da5cb5b1461073f5780638f32d59b14610796578063990e5ca6146107c55780639ba89492146107f4578063a15a211c1461081f57610204565b806382dc1ec4146106545780638456cb59146106a55780638a48ac03146106bc5780638b2d981a1461072857610204565b806346fbf68e1161019b5780636dd22fc61161016a5780636dd22fc6146105a15780636ef8d66d146105d05780636f9fb98a146105e7578063715018a6146106125780637c3a00fd1461062957610204565b806346fbf68e14610477578063524704ac146104e05780635c975abb146105375780635f84f3021461056657610204565b80632e1a7d4d116101d75780632e1a7d4d146103a357806332a2c5d0146103f25780633f4ba83a14610449578063439766ce1461046057610204565b80630726429e146102cd57806310eb0e0e146102f857806312065fe014610361578063181783581461038c575b6000803690501461027d576040517f08c379a00000000000000000000000000000000000000000000000000000000081526004018080602001828103825260168152602001807f646174612073656e742077697468206d6573736167650000000000000000000081525060200191505060405180910390fd5b3373ffffffffffffffffffffffffffffffffffffffff167f2da466a7b24304f47e87fa2e1e5a81b9831ce54fec19055ce277ca2f39ba42c4346040518082815260200191505060405180910390a2005b3480156102d957600080fd5b506102e26109be565b6040518082815260200191505060405180910390f35b34801561030457600080fd5b506103476004803603602081101561031b57600080fd5b81019080803573ffffffffffffffffffffffffffffffffffffffff1690602001909291905050506109c4565b604051808215151515815260200191505060405180910390f35b34801561036d57600080fd5b506103766109e4565b6040518082815260200191505060405180910390f35b34801561039857600080fd5b506103a1610a2b565b005b3480156103af57600080fd5b506103dc600480360360208110156103c657600080fd5b8101908080359060200190929190505050610cc0565b6040518082815260200191505060405180910390f35b3480156103fe57600080fd5b50610407611060565b604051808273ffffffffffffffffffffffffffffffffffffffff1673ffffffffffffffffffffffffffffffffffffffff16815260200191505060405180910390f35b34801561045557600080fd5b5061045e611068565b005b34801561046c57600080fd5b506104756111c8565b005b34801561048357600080fd5b506104c66004803603602081101561049a57600080fd5b81019080803573ffffffffffffffffffffffffffffffffffffffff16906020019092919050505061127d565b604051808215151515815260200191505060405180910390f35b3480156104ec57600080fd5b506104f561129a565b604051808273ffffffffffffffffffffffffffffffffffffffff1673ffffffffffffffffffffffffffffffffffffffff16815260200191505060405180910390f35b34801561054357600080fd5b5061054c6112c0565b604051808215151515815260200191505060405180910390f35b34801561057257600080fd5b5061059f6004803603602081101561058957600080fd5b81019080803590602001909291905050506112d7565b005b3480156105ad57600080fd5b506105b66113d2565b604051808215151515815260200191505060405180910390f35b3480156105dc57600080fd5b506105e5611898565b005b3480156105f357600080fd5b506105fc6118a3565b6040518082815260200191505060405180910390f35b34801561061e57600080fd5b506106276118c2565b005b34801561063557600080fd5b5061063e6119fb565b6040518082815260200191505060405180910390f35b34801561066057600080fd5b506106a36004803603602081101561067757600080fd5b81019080803573ffffffffffffffffffffffffffffffffffffffff169060200190929190505050611a01565b005b3480156106b157600080fd5b506106ba611a6b565b005b3480156106c857600080fd5b506106d1611bcc565b6040518080602001828103825283818151815260200191508051906020019060200280838360005b838110156107145780820151818401526020810190506106f9565b505050509050019250505060405180910390f35b34801561073457600080fd5b5061073d611cd4565b005b34801561074b57600080fd5b50610754611e30565b604051808273ffffffffffffffffffffffffffffffffffffffff1673ffffffffffffffffffffffffffffffffffffffff16815260200191505060405180910390f35b3480156107a257600080fd5b506107ab611e59565b604051808215151515815260200191505060405180910390f35b3480156107d157600080fd5b506107da611eb0565b604051808215151515815260200191505060405180910390f35b34801561080057600080fd5b50610809611ec3565b6040518082815260200191505060405180910390f35b34801561082b57600080fd5b50610834611f4a565b005b34801561084257600080fd5b5061084b612200565b6040518082815260200191505060405180910390f35b34801561086d57600080fd5b50610876612206565b005b34801561088457600080fd5b506108b16004803603602081101561089b57600080fd5b81019080803590602001909291905050506122a5565b005b6108bb6123a7565b6040518082815260200191505060405180910390f35b3480156108dd57600080fd5b506108e6612689565b604051808215151515815260200191505060405180910390f35b34801561090c57600080fd5b50610915612a0f565b6040518082815260200191505060405180910390f35b34801561093757600080fd5b5061097a6004803603602081101561094e57600080fd5b81019080803573ffffffffffffffffffffffffffffffffffffffff169060200190929190505050612a1b565b005b34801561098857600080fd5b50610991612aa1565b6040518082815260200191505060405180910390f35b3480156109b357600080fd5b506109bc612aa7565b005b60065481565b600c6020528060005260406000206000915054906101000a900460ff1681565b6000600b60003373ffffffffffffffffffffffffffffffffffffffff1673ffffffffffffffffffffffffffffffffffffffff16815260200190815260200160002054905090565b600860019054906101000a900473ffffffffffffffffffffffffffffffffffffffff1673ffffffffffffffffffffffffffffffffffffffff163373ffffffffffffffffffffffffffffffffffffffff1614610aee576040517f08c379a000000000000000000000000000000000000000000000000000000000815260040180806020018281038252600c8152602001807f556e617574686f7269736564000000000000000000000000000000000000000081525060200191505060405180910390fd5b600260009054906101000a900460ff1615610b71576040517f08c379a00000000000000000000000000000000000000000000000000000000081526004018080602001828103825260108152602001807f5061757361626c653a207061757365640000000000000000000000000000000081525060200191505060405180910390fd5b600080600860019054906101000a900473ffffffffffffffffffffffffffffffffffffffff1673ffffffffffffffffffffffffffffffffffffffff1663420b81f66040518163ffffffff1660e01b8152600401604080518083038186803b158015610bdb57600080fd5b505afa158015610bef573d6000803e3d6000fd5b505050506040513d6040811015610c0557600080fd5b810190808051906020019092919080519060200190929190505050816fffffffffffffffffffffffffffffffff169150809350819250505081610c75577f59d48bb82010677fb3ca9c6bbeb3a3801c5e1572c307569e3b870d6937bb65ba60405160405180910390a15050610cbe565b80600681905550610c84612c02565b7fc2c24f29eda7b97be3182bcc7c0058a4e9f5ea6455e0f434ec01efecf0238802816040518082815260200191505060405180910390a150505b565b6000600c60003373ffffffffffffffffffffffffffffffffffffffff1673ffffffffffffffffffffffffffffffffffffffff16815260200190815260200160002060009054906101000a900460ff16610d81576040517f08c379a00000000000000000000000000000000000000000000000000000000081526004018080602001828103825260158152602001807f596f75206d75737420666972737420656e726f6c6c000000000000000000000081525060200191505060405180910390fd5b8180600b60003373ffffffffffffffffffffffffffffffffffffffff1673ffffffffffffffffffffffffffffffffffffffff168152602001908152602001600020541015610e37576040517f08c379a00000000000000000000000000000000000000000000000000000000081526004018080602001828103825260148152602001807f496e73756666696369656e742062616c616e636500000000000000000000000081525060200191505060405180910390fd5b600b60003373ffffffffffffffffffffffffffffffffffffffff1673ffffffffffffffffffffffffffffffffffffffff168152602001908152602001600020543073ffffffffffffffffffffffffffffffffffffffff16311015610ee6576040517f08c379a00000000000000000000000000000000000000000000000000000000081526004018080602001828103825260268152602001806133df6026913960400191505060405180910390fd5b610f3883600b60003373ffffffffffffffffffffffffffffffffffffffff1673ffffffffffffffffffffffffffffffffffffffff16815260200190815260200160002054612c1490919063ffffffff16565b600b60003373ffffffffffffffffffffffffffffffffffffffff1673ffffffffffffffffffffffffffffffffffffffff168152602001908152602001600020819055503373ffffffffffffffffffffffffffffffffffffffff166108fc849081150290604051600060405180830381858888f19350505050158015610fc1573d6000803e3d6000fd5b50600b60003373ffffffffffffffffffffffffffffffffffffffff1673ffffffffffffffffffffffffffffffffffffffff1681526020019081526020016000205491503373ffffffffffffffffffffffffffffffffffffffff167f92ccf450a286a957af52509bc1c9939d1a6a481783e142e41e2499f0bb66ebc68484604051808381526020018281526020019250505060405180910390a250919050565b600030905090565b6110713361127d565b6110c6576040517f08c379a00000000000000000000000000000000000000000000000000000000081526004018080602001828103825260308152602001806133896030913960400191505060405180910390fd5b600260009054906101000a900460ff16611148576040517f08c379a00000000000000000000000000000000000000000000000000000000081526004018080602001828103825260148152602001807f5061757361626c653a206e6f742070617573656400000000000000000000000081525060200191505060405180910390fd5b6000600260006101000a81548160ff0219169083151502179055507f5db9ee0a495bf2e6ff9c91a7834c1ba4fdd244a5e8aa4e537bd38aeae4b073aa33604051808273ffffffffffffffffffffffffffffffffffffffff1673ffffffffffffffffffffffffffffffffffffffff16815260200191505060405180910390a1565b6111d0611e59565b611242576040517f08c379a00000000000000000000000000000000000000000000000000000000081526004018080602001828103825260208152602001807f4f776e61626c653a2063616c6c6572206973206e6f7420746865206f776e657281525060200191505060405180910390fd5b600860009054906101000a900460ff1615611273576000600860006101000a81548160ff0219169083151502179055505b61127b611a6b565b565b6000611293826001612c9d90919063ffffffff16565b9050919050565b600860019054906101000a900473ffffffffffffffffffffffffffffffffffffffff1681565b6000600260009054906101000a900460ff16905090565b6112df611e59565b611351576040517f08c379a00000000000000000000000000000000000000000000000000000000081526004018080602001828103825260208152602001807f4f776e61626c653a2063616c6c6572206973206e6f7420746865206f776e657281525060200191505060405180910390fd5b60068111156113c8576040517f08c379a000000000000000000000000000000000000000000000000000000000815260040180806020018281038252601d8152602001807f726174652073686f756c64206265206e6f206d6f7265207468616e203600000081525060200191505060405180910390fd5b8060038190555050565b6000600c60003373ffffffffffffffffffffffffffffffffffffffff1673ffffffffffffffffffffffffffffffffffffffff16815260200190815260200160002060009054906101000a900460ff16611493576040517f08c379a00000000000000000000000000000000000000000000000000000000081526004018080602001828103825260158152602001807f596f75206d75737420666972737420656e726f6c6c000000000000000000000081525060200191505060405180910390fd5b600b60003373ffffffffffffffffffffffffffffffffffffffff1673ffffffffffffffffffffffffffffffffffffffff1681526020019081526020016000205480600b60003373ffffffffffffffffffffffffffffffffffffffff1673ffffffffffffffffffffffffffffffffffffffff168152602001908152602001600020541015611588576040517f08c379a00000000000000000000000000000000000000000000000000000000081526004018080602001828103825260148152602001807f496e73756666696369656e742062616c616e636500000000000000000000000081525060200191505060405180910390fd5b600b60003373ffffffffffffffffffffffffffffffffffffffff1673ffffffffffffffffffffffffffffffffffffffff168152602001908152602001600020543073ffffffffffffffffffffffffffffffffffffffff16311015611637576040517f08c379a00000000000000000000000000000000000000000000000000000000081526004018080602001828103825260268152602001806133df6026913960400191505060405180910390fd5b600260009054906101000a900460ff16156116ba576040517f08c379a00000000000000000000000000000000000000000000000000000000081526004018080602001828103825260108152602001807f5061757361626c653a207061757365640000000000000000000000000000000081525060200191505060405180910390fd5b6000600b60003373ffffffffffffffffffffffffffffffffffffffff1673ffffffffffffffffffffffffffffffffffffffff1681526020019081526020016000205490506000600b60003373ffffffffffffffffffffffffffffffffffffffff1673ffffffffffffffffffffffffffffffffffffffff168152602001908152602001600020819055506000600c60003373ffffffffffffffffffffffffffffffffffffffff1673ffffffffffffffffffffffffffffffffffffffff16815260200190815260200160002060006101000a81548160ff0219169083151502179055506117a433612d7b565b60008111156117f5573373ffffffffffffffffffffffffffffffffffffffff166108fc829081150290604051600060405180830381858888f193505050501580156117f3573d6000803e3d6000fd5b505b3373ffffffffffffffffffffffffffffffffffffffff167f7aada01f2a633efb947ddd92f84368215074ce99a5f64c26640f254736b2f256826040518082815260200191505060405180910390a2600c60003373ffffffffffffffffffffffffffffffffffffffff1673ffffffffffffffffffffffffffffffffffffffff16815260200190815260200160002060009054906101000a900460ff16159250505090565b6118a133612e90565b565b60003073ffffffffffffffffffffffffffffffffffffffff1631905090565b6118ca611e59565b61193c576040517f08c379a00000000000000000000000000000000000000000000000000000000081526004018080602001828103825260208152602001807f4f776e61626c653a2063616c6c6572206973206e6f7420746865206f776e657281525060200191505060405180910390fd5b600073ffffffffffffffffffffffffffffffffffffffff166000809054906101000a900473ffffffffffffffffffffffffffffffffffffffff1673ffffffffffffffffffffffffffffffffffffffff167f8be0079c531659141344cd1fd0a4f28419497f9722a3daafe3b4186f6b6457e060405160405180910390a360008060006101000a81548173ffffffffffffffffffffffffffffffffffffffff021916908373ffffffffffffffffffffffffffffffffffffffff160217905550565b60035481565b611a0a3361127d565b611a5f576040517f08c379a00000000000000000000000000000000000000000000000000000000081526004018080602001828103825260308152602001806133896030913960400191505060405180910390fd5b611a6881612eea565b50565b611a743361127d565b611ac9576040517f08c379a00000000000000000000000000000000000000000000000000000000081526004018080602001828103825260308152602001806133896030913960400191505060405180910390fd5b600260009054906101000a900460ff1615611b4c576040517f08c379a00000000000000000000000000000000000000000000000000000000081526004018080602001828103825260108152602001807f5061757361626c653a207061757365640000000000000000000000000000000081525060200191505060405180910390fd5b6001600260006101000a81548160ff0219169083151502179055507f62e78cea01bee320cd4e420270b5ea74000d11b0c9f74754ebdbfc544b05a25833604051808273ffffffffffffffffffffffffffffffffffffffff1673ffffffffffffffffffffffffffffffffffffffff16815260200191505060405180910390a1565b6060611bd6611e59565b611c48576040517f08c379a00000000000000000000000000000000000000000000000000000000081526004018080602001828103825260208152602001807f4f776e61626c653a2063616c6c6572206973206e6f7420746865206f776e657281525060200191505060405180910390fd5b6009805480602002602001604051908101604052809291908181526020018280548015611cca57602002820191906000526020600020905b8160009054906101000a900473ffffffffffffffffffffffffffffffffffffffff1673ffffffffffffffffffffffffffffffffffffffff1681526020019060010190808311611c80575b5050505050905090565b611cdc611e59565b611d4e576040517f08c379a00000000000000000000000000000000000000000000000000000000081526004018080602001828103825260208152602001807f4f776e61626c653a2063616c6c6572206973206e6f7420746865206f776e657281525060200191505060405180910390fd5b600260009054906101000a900460ff1615611dd1576040517f08c379a00000000000000000000000000000000000000000000000000000000081526004018080602001828103825260108152602001807f5061757361626c653a207061757365640000000000000000000000000000000081525060200191505060405180910390fd5b600860009054906101000a900460ff1615611e2e576000600860006101000a81548160ff0219169083151502179055507f26c0d6c3c4cb4e0f0bb1588fede18f59384fd7f97b0eb9136e33ef2b6ea2f3af60405160405180910390a15b565b60008060009054906101000a900473ffffffffffffffffffffffffffffffffffffffff16905090565b60008060009054906101000a900473ffffffffffffffffffffffffffffffffffffffff1673ffffffffffffffffffffffffffffffffffffffff163373ffffffffffffffffffffffffffffffffffffffff1614905090565b600860009054906101000a900460ff1681565b6000611ecd611e59565b611f3f576040517f08c379a00000000000000000000000000000000000000000000000000000000081526004018080602001828103825260208152602001807f4f776e61626c653a2063616c6c6572206973206e6f7420746865206f776e657281525060200191505060405180910390fd5b600980549050905090565b611f52611e59565b611fc4576040517f08c379a00000000000000000000000000000000000000000000000000000000081526004018080602001828103825260208152602001807f4f776e61626c653a2063616c6c6572206973206e6f7420746865206f776e657281525060200191505060405180910390fd5b600860009054906101000a900460ff16612046576040517f08c379a000000000000000000000000000000000000000000000000000000000815260040180806020018281038252601a8152602001807f496e746572657374207061796d656e74732073746f707065642e00000000000081525060200191505060405180910390fd5b60008090505b6009805490508110156121c45760006009828154811061206857fe5b9060005260206000200160009054906101000a900473ffffffffffffffffffffffffffffffffffffffff1690506000600b60008373ffffffffffffffffffffffffffffffffffffffff1673ffffffffffffffffffffffffffffffffffffffff168152602001908152602001600020549050600081141580156120ec57506005548110155b156121b557600061210c618e946003548402612f4490919063ffffffff16565b905061216081600b60008673ffffffffffffffffffffffffffffffffffffffff1673ffffffffffffffffffffffffffffffffffffffff16815260200190815260200160002054612fd390919063ffffffff16565b600b60008573ffffffffffffffffffffffffffffffffffffffff1673ffffffffffffffffffffffffffffffffffffffff1681526020019081526020016000208190555080600760008282540192505081905550505b5050808060010191505061204c565b507f53ba314319f9ad9ecc35e1a102b598107f143841d7d768534884a3b6909d4a156007546040518082815260200191505060405180910390a1565b60055481565b61220e611e59565b612280576040517f08c379a00000000000000000000000000000000000000000000000000000000081526004018080602001828103825260208152602001807f4f776e61626c653a2063616c6c6572206973206e6f7420746865206f776e657281525060200191505060405180910390fd5b6001600860006101000a81548160ff0219169083151502179055506122a3611068565b565b6122ad611e59565b61231f576040517f08c379a00000000000000000000000000000000000000000000000000000000081526004018080602001828103825260208152602001807f4f776e61626c653a2063616c6c6572206973206e6f7420746865206f776e657281525060200191505060405180910390fd5b60008111612395576040517f08c379a00000000000000000000000000000000000000000000000000000000081526004018080602001828103825260208152602001807f62616c616e63652073686f756c642062652067726561746572207468616e203081525060200191505060405180910390fd5b806004819055506123a4612c02565b50565b6000600c60003373ffffffffffffffffffffffffffffffffffffffff1673ffffffffffffffffffffffffffffffffffffffff16815260200190815260200160002060009054906101000a900460ff16612468576040517f08c379a00000000000000000000000000000000000000000000000000000000081526004018080602001828103825260158152602001807f596f75206d75737420666972737420656e726f6c6c000000000000000000000081525060200191505060405180910390fd5b600260009054906101000a900460ff16156124eb576040517f08c379a00000000000000000000000000000000000000000000000000000000081526004018080602001828103825260108152602001807f5061757361626c653a207061757365640000000000000000000000000000000081525060200191505060405180910390fd5b60003411612561576040517f08c379a000000000000000000000000000000000000000000000000000000000815260040180806020018281038252601e8152602001807f4465706f736974206d7573742062652067726561746572207468616e2030000081525060200191505060405180910390fd5b6125b334600b60003373ffffffffffffffffffffffffffffffffffffffff1673ffffffffffffffffffffffffffffffffffffffff16815260200190815260200160002054612fd390919063ffffffff16565b600b60003373ffffffffffffffffffffffffffffffffffffffff1673ffffffffffffffffffffffffffffffffffffffff16815260200190815260200160002081905550600b60003373ffffffffffffffffffffffffffffffffffffffff1673ffffffffffffffffffffffffffffffffffffffff1681526020019081526020016000205490503373ffffffffffffffffffffffffffffffffffffffff167f2da466a7b24304f47e87fa2e1e5a81b9831ce54fec19055ce277ca2f39ba42c4346040518082815260200191505060405180910390a290565b60008073ffffffffffffffffffffffffffffffffffffffff163373ffffffffffffffffffffffffffffffffffffffff16141561272d576040517f08c379a00000000000000000000000000000000000000000000000000000000081526004018080602001828103825260108152602001807f496e76616c696420616464726573732e0000000000000000000000000000000081525060200191505060405180910390fd5b600c60003373ffffffffffffffffffffffffffffffffffffffff1673ffffffffffffffffffffffffffffffffffffffff16815260200190815260200160002060009054906101000a900460ff16156127ed576040517f08c379a00000000000000000000000000000000000000000000000000000000081526004018080602001828103825260118152602001807f416c726561647920656e726f6c6c65642e00000000000000000000000000000081525060200191505060405180910390fd5b600260009054906101000a900460ff1615612870576040517f08c379a00000000000000000000000000000000000000000000000000000000081526004018080602001828103825260108152602001807f5061757361626c653a207061757365640000000000000000000000000000000081525060200191505060405180910390fd5b6001600c60003373ffffffffffffffffffffffffffffffffffffffff1673ffffffffffffffffffffffffffffffffffffffff16815260200190815260200160002060006101000a81548160ff02191690831515021790555060093390806001815401808255809150509060018203906000526020600020016000909192909190916101000a81548173ffffffffffffffffffffffffffffffffffffffff021916908373ffffffffffffffffffffffffffffffffffffffff16021790555050600160098054905003600a60003373ffffffffffffffffffffffffffffffffffffffff1673ffffffffffffffffffffffffffffffffffffffff16815260200190815260200160002081905550600c60003373ffffffffffffffffffffffffffffffffffffffff1673ffffffffffffffffffffffffffffffffffffffff16815260200190815260200160002060009054906101000a900460ff1690503373ffffffffffffffffffffffffffffffffffffffff167f6132d0e5700fe03060d64172a9ce706f525f7dfacb454a300ba78f4b50fc872260405160405180910390a290565b6000630da4b055905090565b612a23611e59565b612a95576040517f08c379a00000000000000000000000000000000000000000000000000000000081526004018080602001828103825260208152602001807f4f776e61626c653a2063616c6c6572206973206e6f7420746865206f776e657281525060200191505060405180910390fd5b612a9e8161305b565b50565b60045481565b612aaf611e59565b612b21576040517f08c379a00000000000000000000000000000000000000000000000000000000081526004018080602001828103825260208152602001807f4f776e61626c653a2063616c6c6572206973206e6f7420746865206f776e657281525060200191505060405180910390fd5b600260009054906101000a900460ff1615612ba4576040517f08c379a00000000000000000000000000000000000000000000000000000000081526004018080602001828103825260108152602001807f5061757361626c653a207061757365640000000000000000000000000000000081525060200191505060405180910390fd5b600860009054906101000a900460ff16612c00576001600860006101000a81548160ff0219169083151502179055507f1d110ef6d9298f409fa8c2070f35bb4346254ce1a8ad58a4d0ca74128736e89860405160405180910390a15b565b600654600a6004540202600581905550565b600082821115612c8c576040517f08c379a000000000000000000000000000000000000000000000000000000000815260040180806020018281038252601e8152602001807f536166654d6174683a207375627472616374696f6e206f766572666c6f77000081525060200191505060405180910390fd5b600082840390508091505092915050565b60008073ffffffffffffffffffffffffffffffffffffffff168273ffffffffffffffffffffffffffffffffffffffff161415612d24576040517f08c379a00000000000000000000000000000000000000000000000000000000081526004018080602001828103825260228152602001806134266022913960400191505060405180910390fd5b8260000160008373ffffffffffffffffffffffffffffffffffffffff1673ffffffffffffffffffffffffffffffffffffffff16815260200190815260200160002060009054906101000a900460ff16905092915050565b6000600a60008373ffffffffffffffffffffffffffffffffffffffff1673ffffffffffffffffffffffffffffffffffffffff1681526020019081526020016000205490506009805490508110612dd15750612e8d565b60016009805490501115612e7557600960016009805490500381548110612df457fe5b9060005260206000200160009054906101000a900473ffffffffffffffffffffffffffffffffffffffff1660098281548110612e2c57fe5b9060005260206000200160006101000a81548173ffffffffffffffffffffffffffffffffffffffff021916908373ffffffffffffffffffffffffffffffffffffffff1602179055505b6009805480919060019003612e8a9190613337565b50505b50565b612ea481600161319f90919063ffffffff16565b8073ffffffffffffffffffffffffffffffffffffffff167fcd265ebaf09df2871cc7bd4133404a235ba12eff2041bb89d9c714a2621c7c7e60405160405180910390a250565b612efe81600161325c90919063ffffffff16565b8073ffffffffffffffffffffffffffffffffffffffff167f6719d08c1888103bea251a4ed56406bd0c3e69723c8a1686e017e7bbe159b6f860405160405180910390a250565b6000808211612fbb576040517f08c379a000000000000000000000000000000000000000000000000000000000815260040180806020018281038252601a8152602001807f536166654d6174683a206469766973696f6e206279207a65726f00000000000081525060200191505060405180910390fd5b6000828481612fc657fe5b0490508091505092915050565b600080828401905083811015613051576040517f08c379a000000000000000000000000000000000000000000000000000000000815260040180806020018281038252601b8152602001807f536166654d6174683a206164646974696f6e206f766572666c6f77000000000081525060200191505060405180910390fd5b8091505092915050565b600073ffffffffffffffffffffffffffffffffffffffff168173ffffffffffffffffffffffffffffffffffffffff1614156130e1576040517f08c379a00000000000000000000000000000000000000000000000000000000081526004018080602001828103825260268152602001806133b96026913960400191505060405180910390fd5b8073ffffffffffffffffffffffffffffffffffffffff166000809054906101000a900473ffffffffffffffffffffffffffffffffffffffff1673ffffffffffffffffffffffffffffffffffffffff167f8be0079c531659141344cd1fd0a4f28419497f9722a3daafe3b4186f6b6457e060405160405180910390a3806000806101000a81548173ffffffffffffffffffffffffffffffffffffffff021916908373ffffffffffffffffffffffffffffffffffffffff16021790555050565b6131a98282612c9d565b6131fe576040517f08c379a00000000000000000000000000000000000000000000000000000000081526004018080602001828103825260218152602001806134056021913960400191505060405180910390fd5b60008260000160008373ffffffffffffffffffffffffffffffffffffffff1673ffffffffffffffffffffffffffffffffffffffff16815260200190815260200160002060006101000a81548160ff0219169083151502179055505050565b6132668282612c9d565b156132d9576040517f08c379a000000000000000000000000000000000000000000000000000000000815260040180806020018281038252601f8152602001807f526f6c65733a206163636f756e7420616c72656164792068617320726f6c650081525060200191505060405180910390fd5b60018260000160008373ffffffffffffffffffffffffffffffffffffffff1673ffffffffffffffffffffffffffffffffffffffff16815260200190815260200160002060006101000a81548160ff0219169083151502179055505050565b81548183558181111561335e5781836000526020600020918201910161335d9190613363565b5b505050565b61338591905b80821115613381576000816000905550600101613369565b5090565b9056fe506175736572526f6c653a2063616c6c657220646f6573206e6f742068617665207468652050617573657220726f6c654f776e61626c653a206e6577206f776e657220697320746865207a65726f206164647265737342616e6b2063616e6e6f742070617920696e74657265737420617420746865206d6f6d656e74526f6c65733a206163636f756e7420646f6573206e6f74206861766520726f6c65526f6c65733a206163636f756e7420697320746865207a65726f2061646472657373a165627a7a72305820d5dd896a7e1d9defb763d8bb3701cc94cdf4ad17cdebbfea25ad38c013a142350029526f6c65733a206163636f756e7420697320746865207a65726f2061646472657373",
  "source": "pragma solidity ^0.5.0;\r\n\r\nimport 'openzeppelin-solidity/contracts/ownership/Ownable.sol';\r\nimport 'openzeppelin-solidity/contracts/math/SafeMath.sol';\r\nimport 'openzeppelin-solidity/contracts/lifecycle/Pausable.sol';\r\nimport \"../contracts/Ilighthouse.sol\"; // Rhombus oracle\r\nimport \"../contracts/Lighthouse.sol\";\r\n\r\n/// @title A bank contract that pays its users interest on a daily basis.\r\n/// @author David Noel\r\n/// @notice Interest is based on maintaining a minumum balance in USD, which\r\n/// is converted to ETH using a rate fed into the contract by an Oracle.\r\n/// The rate is 10 cents (USD) of ETH.\r\ncontract SimpleBank is Ownable, Pausable, Searcher {\r\n    using SafeMath for uint256;\r\n\r\n    /// Bank interest rate\r\n    uint public interestRate = 3;\r\n    /// Min balance required (USD) to start receiving interest payments.\r\n    uint public minBalanceUsd = 1;\r\n    /// Min balance required (ETH)\r\n    uint public minBalanceEth;\r\n    /// Ten cents (USD) in ETH. Defaulted using (0.1 USD ~ 0.00033 ETH 6/28/19)\r\n    uint public tenCents = 330000000000000;\r\n    /// Total interest paid by bank to date\r\n    uint private totalInterestPaid;\r\n    /// Are interest payments running?\r\n    bool public interestRunning;\r\n    /// ETHUSD lighthouse oracle\r\n    ILighthouse  public myLighthouse;\r\n    /// Array of users registered\r\n    address[] private accounts;\r\n    mapping(address => uint) accountsIndex;\r\n    /// Users balance.\r\n    mapping (address => uint) private balances;\r\n    /// Function to allow contracts to be able to see if a user is enrolled.\r\n    mapping (address => bool) public enrolled;\r\n\r\n    /// When a user signs up\r\n    event Enrolled(address indexed accountAddress);\r\n    /// When a user makes a deposit\r\n    event Deposited(address indexed accountAddress, uint amount);\r\n    /// When a user makes a withdrawal\r\n    event Withdrawn(address indexed accountAddress, uint withdrawAmount, uint newBalance);\r\n    /// When a user closes their account\r\n    event ClosedAccount(address indexed accountAddress, uint balanceAtClose);\r\n    /// When interest payment starts\r\n    event InterestStarted();\r\n    /// When interest payment stops\r\n    event InterestStopped();\r\n    // When interest is paid by bank\r\n    event InterestPaid(uint _totalInterestPaid);\r\n    // When oracle updates the price of 10 cents worth of ETH.\r\n    event Poked(uint _tenCentsEth);\r\n    /// When oracle data is not valid\r\n    event OracleDataNotValid();\r\n\r\n    /// Check if user is enrolled.\r\n    modifier isEnrolled(){\r\n        require(enrolled[msg.sender], \"You must first enroll\");\r\n        _;\r\n    }\r\n\r\n    /// Check user is not already enrolled, and user address is valid.\r\n    modifier checkEnroll(){\r\n        require(msg.sender != address(0), \"Invalid address.\");\r\n        require(!enrolled[msg.sender], \"Already enrolled.\");\r\n        _;\r\n    }\r\n\r\n    /// Ensure user has enough balance to withdraw, and bank can pay user.\r\n    modifier checkWithdraw(uint withdrawAmount){\r\n        require(balances[msg.sender] >= withdrawAmount, \"Insufficient balance\");\r\n        require(address(this).balance >= balances[msg.sender],\"Bank cannot pay interest at the moment\");\r\n        _;\r\n    }\r\n\r\n    /// Ensures sender is oracle.\r\n    modifier onlyLighthouse {\r\n        require (msg.sender == address(myLighthouse), \"Unauthorised\");\r\n        _;\r\n    }\r\n\r\n        /// Ensures interest payments are enabled\r\n    modifier interestEnabled {\r\n        require (interestRunning, \"Interest payments stopped.\");\r\n        _;\r\n    }\r\n\r\n    /**\r\n     * @dev Initializes the contract setting the deployer as the initial owner\r\n     * the Rhombus Oracle address, the minumum balance in ETH, and starts interest payments\r\n     */\r\n    constructor(ILighthouse _myLighthouse) public {\r\n        myLighthouse = _myLighthouse;\r\n        updateMinBalanceEth();\r\n        startPayments();\r\n    }\r\n\r\n    /// @notice Enroll a customer with the bank\r\n    /// @dev The the account and account index is saved, to aid in deletion of an account.\r\n    /// @return The users enrolled status\r\n    function enroll() public checkEnroll whenNotPaused returns (bool _enrolled){\r\n        enrolled[msg.sender] = true;\r\n        accounts.push(msg.sender);\r\n        accountsIndex[msg.sender] = accounts.length - 1;\r\n        _enrolled = enrolled[msg.sender];\r\n        emit Enrolled(msg.sender);\r\n    }\r\n\r\n    /// @notice Deposit ether into bank\r\n    /// @return The balance of the user after the deposit is made\r\n    function deposit() external payable isEnrolled whenNotPaused returns (uint _balance) {\r\n        require(msg.value > 0, \"Deposit must be greater than 0\");\r\n        balances[msg.sender] = balances[msg.sender].add(msg.value);\r\n        _balance = balances[msg.sender];\r\n        emit Deposited(msg.sender, msg.value);\r\n    }\r\n\r\n    /// @notice Withdraw ether from bank using pull pattern (to prevent re-entrancy)\r\n    /// checks-effects-interaction pattern to prevent re-entrancy\r\n    /// @dev This does not return any excess ether sent to it\r\n    /// @param withdrawAmount amount you want to withdraw\r\n    /// @return The balance remaining for the user\r\n    function withdraw(uint withdrawAmount) external isEnrolled checkWithdraw(withdrawAmount) returns (uint _balance) {\r\n        balances[msg.sender] = balances[msg.sender].sub(withdrawAmount);\r\n        msg.sender.transfer(withdrawAmount);\r\n        _balance = balances[msg.sender];\r\n        emit Withdrawn(msg.sender, withdrawAmount, _balance);\r\n    }\r\n\r\n    /// @notice Close bank account and return all user's balance to them.\r\n    /// checks-effects-interaction pattern to prevent re-entrancy\r\n    /// @return The enrolled status of the user.\r\n    function closeAccount() external isEnrolled checkWithdraw(balances[msg.sender]) whenNotPaused returns (bool) {\r\n        uint totalBalance = balances[msg.sender];\r\n        balances[msg.sender] = 0;\r\n        enrolled[msg.sender] = false;\r\n        removeAccount(msg.sender);\r\n        if(totalBalance > 0){\r\n            msg.sender.transfer(totalBalance);\r\n        }\r\n        emit ClosedAccount(msg.sender, totalBalance);\r\n        return !enrolled[msg.sender];\r\n    }\r\n\r\n    /// @notice Get account balance\r\n    /// @return The balance of the user\r\n    function getBalance() public view returns (uint) {\r\n        return balances[msg.sender];\r\n    }\r\n\r\n    /// @notice Get all registered accounts\r\n    /// @return Array of accounts\r\n    function getAccounts() public view onlyOwner returns (address[] memory) {\r\n        return accounts;\r\n    }\r\n\r\n    /// @notice Get total accounts\r\n    /// @return Account total\r\n    function getNumAccounts() public view onlyOwner returns (uint) {\r\n        return accounts.length;\r\n    }\r\n\r\n    /// @notice Get address of this contract\r\n    /// @return The contract address\r\n    function getContractAddress() public view returns (address) {\r\n        return address(this);\r\n    }\r\n\r\n    /// @notice Get contract balance\r\n    /// @return The balance of the contract\r\n    function getContractBalance() public view returns(uint) {\r\n        return address(this).balance;\r\n    }\r\n\r\n    /// @notice Set the bank interest rate.\r\n    function setInterestRate(uint _rate) public onlyOwner {\r\n        require(_rate <= 6, \"rate should be no more than 6\");\r\n        interestRate = _rate;\r\n    }\r\n\r\n    /// @notice Set the minimum balance (USD, ETH) required to start receiving interest.\r\n    function setMinBalance(uint _minBalance) public onlyOwner {\r\n        require(_minBalance > 0, \"balance should be greater than 0\");\r\n        minBalanceUsd = _minBalance;\r\n        updateMinBalanceEth();\r\n    }\r\n\r\n    /// @notice Start interest payments. Circuit breaker pattern used.\r\n    function startPayments() public onlyOwner whenNotPaused {\r\n        if(!interestRunning){\r\n        interestRunning = true;\r\n        emit InterestStarted();\r\n        }\r\n    }\r\n\r\n    /// @notice Stop interest payments. Circuit breaker pattern used.\r\n    function stopPayments() public onlyOwner whenNotPaused {\r\n        if(interestRunning){\r\n        interestRunning = false;\r\n        emit InterestStopped();\r\n        }\r\n    }\r\n\r\n    /// @notice Pause the contract. This will disable enrollments, deposits and interest payments.\r\n    /// Only withdrawals will be allowed\r\n    function pauseContract() public onlyOwner {\r\n        if(interestRunning){\r\n            interestRunning = false;\r\n        }\r\n        pause();\r\n    }\r\n\r\n    /// @notice Unpause the contract. This will resume all contract operations.\r\n    function unPauseContract() public onlyOwner {\r\n        interestRunning = true;\r\n        unpause();\r\n    }\r\n\r\n    /// @notice Set 10 cents (USD) worth of ether. This will be called only by\r\n    /// the oracle, and when the contract is not paused (circuit breaker pattern).\r\n    function poke() public onlyLighthouse whenNotPaused {\r\n        bool _valid;\r\n        uint _tenCents;\r\n            (_tenCents, _valid) = myLighthouse.peekData();\r\n            if (!_valid) {\r\n                emit OracleDataNotValid();\r\n                return;\r\n            }\r\n            tenCents = _tenCents;\r\n            updateMinBalanceEth();\r\n            emit Poked(_tenCents);\r\n    }\r\n\r\n    /// @notice Pays interest to every account once criteria is met\r\n    /// @dev Warn: Unbounded for loop is an anti-pattern\r\n    function payInterest() external onlyOwner interestEnabled {\r\n        for (uint i = 0; i < accounts.length; i++) {\r\n            address customerAddress = accounts[i];\r\n            /// get customer balance\r\n            uint balance = balances[customerAddress];\r\n            /// Is customer eligible to receive interest payments ?\r\n            if(balance != 0 && balance >= minBalanceEth){\r\n                uint interest = (balance * interestRate).div(36500);\r\n                balances[customerAddress] = balances[customerAddress].add(interest);\r\n                totalInterestPaid += interest;\r\n            }\r\n        }\r\n        emit InterestPaid(totalInterestPaid);\r\n    }\r\n\r\n    /// @notice Remove an account from the contract\r\n    /// @dev Maybe look into safer algorithm to remove ?\r\n    function removeAccount(address _account) private {\r\n        uint index = accountsIndex[_account];\r\n        if (index >= accounts.length) return;\r\n        if (accounts.length > 1) {\r\n            accounts[index] = accounts[accounts.length-1];\r\n        }\r\n        accounts.length--;\r\n    }\r\n\r\n    /// @notice Set the minimum balance in ETH.\r\n    function updateMinBalanceEth() private {\r\n        minBalanceEth = minBalanceUsd * 10 * tenCents;\r\n    }\r\n\r\n    // Fallback function - Called if other functions don't match call or\r\n    // sent ether without data\r\n    function() external payable {\r\n        require(msg.data.length == 0, \"data sent with message\");\r\n        emit Deposited(msg.sender, msg.value);\r\n    }\r\n}",
  "sourcePath": "C:/Users/David/Documents/Projects/finalproject/simple-bank-exercise-atlanticstarr1/contracts/SimpleBank.sol",
  "compiler": {
    "name": "solc",
    "version": "0.5.8+commit.23d335f2.Emscripten.clang"
  },
  "schemaVersion": "3.0.11",
  "updatedAt": "2019-07-07T17:46:32.531Z",
  "devdoc": {
    "methods": {
      "closeAccount()": {
        "return": "The enrolled status of the user."
      },
      "constructor": {
        "details": "Initializes the contract setting the deployer as the initial owner\r the Rhombus Oracle address, the minumum balance in ETH, and starts interest payments\r"
      },
      "deposit()": {
        "return": "The balance of the user after the deposit is made"
      },
      "enroll()": {
        "return": "The users enrolled status"
      },
      "getAccounts()": {
        "return": "Array of accounts"
      },
      "getBalance()": {
        "return": "The balance of the user"
      },
      "getContractAddress()": {
        "return": "The contract address"
      },
      "getContractBalance()": {
        "return": "The balance of the contract"
      },
      "getNumAccounts()": {
        "return": "Account total"
      },
      "isOwner()": {
        "details": "Returns true if the caller is the current owner.\r"
      },
      "owner()": {
        "details": "Returns the address of the current owner.\r"
      },
      "pause()": {
        "details": "Called by a pauser to pause, triggers stopped state.\r"
      },
      "paused()": {
        "details": "Returns true if the contract is paused, and false otherwise.\r"
      },
      "payInterest()": {
        "details": "Warn: Unbounded for loop is an anti-pattern"
      },
      "renounceOwnership()": {
        "details": "Leaves the contract without owner. It will not be possible to call\r `onlyOwner` functions anymore. Can only be called by the current owner.\r      * > Note: Renouncing ownership will leave the contract without an owner,\r thereby removing any functionality that is only available to the owner.\r"
      },
      "transferOwnership(address)": {
        "details": "Transfers ownership of the contract to a new account (`newOwner`).\r Can only be called by the current owner.\r"
      },
      "unpause()": {
        "details": "Called by a pauser to unpause, returns to normal state.\r"
      },
      "withdraw(uint256)": {
        "return": "The balance remaining for the user"
      }
    }
  },
  "userdoc": {
    "methods": {
      "pauseContract()": {
        "notice": "Only withdrawals will be allowed"
      },
      "poke()": {
        "notice": "the oracle, and when the contract is not paused (circuit breaker pattern)."
      },
      "setInterestRate(uint256)": {
        "notice": "Set the bank interest rate."
      },
      "setMinBalance(uint256)": {
        "notice": "Set the minimum balance (USD, ETH) required to start receiving interest."
      },
      "startPayments()": {
        "notice": "Start interest payments. Circuit breaker pattern used."
      },
      "stopPayments()": {
        "notice": "Stop interest payments. Circuit breaker pattern used."
      },
      "unPauseContract()": {
        "notice": "Unpause the contract. This will resume all contract operations."
      }
    },
    "notice": "The rate is 10 cents (USD) of ETH."
  }
}