{
  "contractName": "SimpleBank",
  "abi": [
    {
      "constant": true,
      "inputs": [],
      "name": "tenCents",
      "outputs": [
        {
          "name": "",
          "type": "uint256"
        }
      ],
      "payable": false,
      "stateMutability": "view",
      "type": "function"
    },
    {
      "constant": true,
      "inputs": [
        {
          "name": "",
          "type": "address"
        }
      ],
      "name": "enrolled",
      "outputs": [
        {
          "name": "",
          "type": "bool"
        }
      ],
      "payable": false,
      "stateMutability": "view",
      "type": "function"
    },
    {
      "constant": false,
      "inputs": [],
      "name": "unpause",
      "outputs": [],
      "payable": false,
      "stateMutability": "nonpayable",
      "type": "function"
    },
    {
      "constant": true,
      "inputs": [
        {
          "name": "account",
          "type": "address"
        }
      ],
      "name": "isPauser",
      "outputs": [
        {
          "name": "",
          "type": "bool"
        }
      ],
      "payable": false,
      "stateMutability": "view",
      "type": "function"
    },
    {
      "constant": true,
      "inputs": [],
      "name": "myLighthouse",
      "outputs": [
        {
          "name": "",
          "type": "address"
        }
      ],
      "payable": false,
      "stateMutability": "view",
      "type": "function"
    },
    {
      "constant": true,
      "inputs": [],
      "name": "paused",
      "outputs": [
        {
          "name": "",
          "type": "bool"
        }
      ],
      "payable": false,
      "stateMutability": "view",
      "type": "function"
    },
    {
      "constant": false,
      "inputs": [],
      "name": "renouncePauser",
      "outputs": [],
      "payable": false,
      "stateMutability": "nonpayable",
      "type": "function"
    },
    {
      "constant": false,
      "inputs": [],
      "name": "renounceOwnership",
      "outputs": [],
      "payable": false,
      "stateMutability": "nonpayable",
      "type": "function"
    },
    {
      "constant": true,
      "inputs": [],
      "name": "interestRate",
      "outputs": [
        {
          "name": "",
          "type": "uint256"
        }
      ],
      "payable": false,
      "stateMutability": "view",
      "type": "function"
    },
    {
      "constant": false,
      "inputs": [
        {
          "name": "account",
          "type": "address"
        }
      ],
      "name": "addPauser",
      "outputs": [],
      "payable": false,
      "stateMutability": "nonpayable",
      "type": "function"
    },
    {
      "constant": false,
      "inputs": [],
      "name": "pause",
      "outputs": [],
      "payable": false,
      "stateMutability": "nonpayable",
      "type": "function"
    },
    {
      "constant": true,
      "inputs": [],
      "name": "owner",
      "outputs": [
        {
          "name": "",
          "type": "address"
        }
      ],
      "payable": false,
      "stateMutability": "view",
      "type": "function"
    },
    {
      "constant": true,
      "inputs": [],
      "name": "isOwner",
      "outputs": [
        {
          "name": "",
          "type": "bool"
        }
      ],
      "payable": false,
      "stateMutability": "view",
      "type": "function"
    },
    {
      "constant": true,
      "inputs": [],
      "name": "interestRunning",
      "outputs": [
        {
          "name": "",
          "type": "bool"
        }
      ],
      "payable": false,
      "stateMutability": "view",
      "type": "function"
    },
    {
      "constant": true,
      "inputs": [],
      "name": "minBalanceEth",
      "outputs": [
        {
          "name": "",
          "type": "uint256"
        }
      ],
      "payable": false,
      "stateMutability": "view",
      "type": "function"
    },
    {
      "constant": true,
      "inputs": [],
      "name": "identify",
      "outputs": [
        {
          "name": "",
          "type": "uint256"
        }
      ],
      "payable": false,
      "stateMutability": "pure",
      "type": "function"
    },
    {
      "constant": false,
      "inputs": [
        {
          "name": "newOwner",
          "type": "address"
        }
      ],
      "name": "transferOwnership",
      "outputs": [],
      "payable": false,
      "stateMutability": "nonpayable",
      "type": "function"
    },
    {
      "constant": true,
      "inputs": [],
      "name": "minBalanceUsd",
      "outputs": [
        {
          "name": "",
          "type": "uint256"
        }
      ],
      "payable": false,
      "stateMutability": "view",
      "type": "function"
    },
    {
      "inputs": [
        {
          "name": "_myLighthouse",
          "type": "address"
        }
      ],
      "payable": false,
      "stateMutability": "nonpayable",
      "type": "constructor"
    },
    {
      "payable": true,
      "stateMutability": "payable",
      "type": "fallback"
    },
    {
      "anonymous": false,
      "inputs": [
        {
          "indexed": true,
          "name": "accountAddress",
          "type": "address"
        }
      ],
      "name": "Enrolled",
      "type": "event"
    },
    {
      "anonymous": false,
      "inputs": [
        {
          "indexed": true,
          "name": "accountAddress",
          "type": "address"
        },
        {
          "indexed": false,
          "name": "amount",
          "type": "uint256"
        }
      ],
      "name": "Deposited",
      "type": "event"
    },
    {
      "anonymous": false,
      "inputs": [
        {
          "indexed": true,
          "name": "accountAddress",
          "type": "address"
        },
        {
          "indexed": false,
          "name": "withdrawAmount",
          "type": "uint256"
        },
        {
          "indexed": false,
          "name": "newBalance",
          "type": "uint256"
        }
      ],
      "name": "Withdrawn",
      "type": "event"
    },
    {
      "anonymous": false,
      "inputs": [
        {
          "indexed": true,
          "name": "accountAddress",
          "type": "address"
        },
        {
          "indexed": false,
          "name": "balanceAtClose",
          "type": "uint256"
        }
      ],
      "name": "ClosedAccount",
      "type": "event"
    },
    {
      "anonymous": false,
      "inputs": [],
      "name": "InterestStarted",
      "type": "event"
    },
    {
      "anonymous": false,
      "inputs": [],
      "name": "InterestStopped",
      "type": "event"
    },
    {
      "anonymous": false,
      "inputs": [
        {
          "indexed": false,
          "name": "_totalInterestPaid",
          "type": "uint256"
        }
      ],
      "name": "InterestPaid",
      "type": "event"
    },
    {
      "anonymous": false,
      "inputs": [],
      "name": "DataNotValid",
      "type": "event"
    },
    {
      "anonymous": false,
      "inputs": [
        {
          "indexed": false,
          "name": "account",
          "type": "address"
        }
      ],
      "name": "Paused",
      "type": "event"
    },
    {
      "anonymous": false,
      "inputs": [
        {
          "indexed": false,
          "name": "account",
          "type": "address"
        }
      ],
      "name": "Unpaused",
      "type": "event"
    },
    {
      "anonymous": false,
      "inputs": [
        {
          "indexed": true,
          "name": "account",
          "type": "address"
        }
      ],
      "name": "PauserAdded",
      "type": "event"
    },
    {
      "anonymous": false,
      "inputs": [
        {
          "indexed": true,
          "name": "account",
          "type": "address"
        }
      ],
      "name": "PauserRemoved",
      "type": "event"
    },
    {
      "anonymous": false,
      "inputs": [
        {
          "indexed": true,
          "name": "previousOwner",
          "type": "address"
        },
        {
          "indexed": true,
          "name": "newOwner",
          "type": "address"
        }
      ],
      "name": "OwnershipTransferred",
      "type": "event"
    },
    {
      "constant": false,
      "inputs": [],
      "name": "enroll",
      "outputs": [
        {
          "name": "_enrolled",
          "type": "bool"
        }
      ],
      "payable": false,
      "stateMutability": "nonpayable",
      "type": "function"
    },
    {
      "constant": false,
      "inputs": [],
      "name": "deposit",
      "outputs": [
        {
          "name": "_balance",
          "type": "uint256"
        }
      ],
      "payable": true,
      "stateMutability": "payable",
      "type": "function"
    },
    {
      "constant": false,
      "inputs": [
        {
          "name": "withdrawAmount",
          "type": "uint256"
        }
      ],
      "name": "withdraw",
      "outputs": [
        {
          "name": "_balance",
          "type": "uint256"
        }
      ],
      "payable": false,
      "stateMutability": "nonpayable",
      "type": "function"
    },
    {
      "constant": false,
      "inputs": [],
      "name": "closeAccount",
      "outputs": [
        {
          "name": "",
          "type": "bool"
        }
      ],
      "payable": false,
      "stateMutability": "nonpayable",
      "type": "function"
    },
    {
      "constant": true,
      "inputs": [],
      "name": "getBalance",
      "outputs": [
        {
          "name": "",
          "type": "uint256"
        }
      ],
      "payable": false,
      "stateMutability": "view",
      "type": "function"
    },
    {
      "constant": true,
      "inputs": [],
      "name": "getAccounts",
      "outputs": [
        {
          "name": "",
          "type": "address[]"
        }
      ],
      "payable": false,
      "stateMutability": "view",
      "type": "function"
    },
    {
      "constant": true,
      "inputs": [],
      "name": "getNumAccounts",
      "outputs": [
        {
          "name": "",
          "type": "uint256"
        }
      ],
      "payable": false,
      "stateMutability": "view",
      "type": "function"
    },
    {
      "constant": true,
      "inputs": [],
      "name": "getContractAddress",
      "outputs": [
        {
          "name": "",
          "type": "address"
        }
      ],
      "payable": false,
      "stateMutability": "view",
      "type": "function"
    },
    {
      "constant": true,
      "inputs": [],
      "name": "getContractBalance",
      "outputs": [
        {
          "name": "",
          "type": "uint256"
        }
      ],
      "payable": false,
      "stateMutability": "view",
      "type": "function"
    },
    {
      "constant": false,
      "inputs": [
        {
          "name": "_rate",
          "type": "uint256"
        }
      ],
      "name": "setInterestRate",
      "outputs": [],
      "payable": false,
      "stateMutability": "nonpayable",
      "type": "function"
    },
    {
      "constant": false,
      "inputs": [
        {
          "name": "_minBalance",
          "type": "uint256"
        }
      ],
      "name": "setMinBalance",
      "outputs": [],
      "payable": false,
      "stateMutability": "nonpayable",
      "type": "function"
    },
    {
      "constant": false,
      "inputs": [],
      "name": "startPayments",
      "outputs": [],
      "payable": false,
      "stateMutability": "nonpayable",
      "type": "function"
    },
    {
      "constant": false,
      "inputs": [],
      "name": "stopPayments",
      "outputs": [],
      "payable": false,
      "stateMutability": "nonpayable",
      "type": "function"
    },
    {
      "constant": false,
      "inputs": [],
      "name": "poke",
      "outputs": [],
      "payable": false,
      "stateMutability": "nonpayable",
      "type": "function"
    },
    {
      "constant": false,
      "inputs": [],
      "name": "payInterest",
      "outputs": [],
      "payable": false,
      "stateMutability": "nonpayable",
      "type": "function"
    }
  ],
  "bytecode": "0x608060405260038055600160045566012c221cc6a0006006553480156200002557600080fd5b5060405160208062003715833981018060405260208110156200004757600080fd5b8101908080519060200190929190505050336000806101000a81548173ffffffffffffffffffffffffffffffffffffffff021916908373ffffffffffffffffffffffffffffffffffffffff1602179055506000809054906101000a900473ffffffffffffffffffffffffffffffffffffffff1673ffffffffffffffffffffffffffffffffffffffff16600073ffffffffffffffffffffffffffffffffffffffff167f8be0079c531659141344cd1fd0a4f28419497f9722a3daafe3b4186f6b6457e060405160405180910390a36200012e33620001c3640100000000026401000000009004565b6000600260006101000a81548160ff02191690831515021790555080600860016101000a81548173ffffffffffffffffffffffffffffffffffffffff021916908373ffffffffffffffffffffffffffffffffffffffff160217905550620001a36200022d640100000000026401000000009004565b620001bc6200023f640100000000026401000000009004565b506200061e565b620001e7816001620003b46401000000000262002fde179091906401000000009004565b8073ffffffffffffffffffffffffffffffffffffffff167f6719d08c1888103bea251a4ed56406bd0c3e69723c8a1686e017e7bbe159b6f860405160405180910390a250565b600654600a6004540202600581905550565b62000258620004a3640100000000026401000000009004565b1515620002cd576040517f08c379a00000000000000000000000000000000000000000000000000000000081526004018080602001828103825260208152602001807f4f776e61626c653a2063616c6c6572206973206e6f7420746865206f776e657281525060200191505060405180910390fd5b600260009054906101000a900460ff1615151562000353576040517f08c379a00000000000000000000000000000000000000000000000000000000081526004018080602001828103825260108152602001807f5061757361626c653a207061757365640000000000000000000000000000000081525060200191505060405180910390fd5b600860009054906101000a900460ff161515620003b2576001600860006101000a81548160ff0219169083151502179055507f1d110ef6d9298f409fa8c2070f35bb4346254ce1a8ad58a4d0ca74128736e89860405160405180910390a15b565b620003cf8282620004fa640100000000026401000000009004565b15151562000445576040517f08c379a000000000000000000000000000000000000000000000000000000000815260040180806020018281038252601f8152602001807f526f6c65733a206163636f756e7420616c72656164792068617320726f6c650081525060200191505060405180910390fd5b60018260000160008373ffffffffffffffffffffffffffffffffffffffff1673ffffffffffffffffffffffffffffffffffffffff16815260200190815260200160002060006101000a81548160ff0219169083151502179055505050565b60008060009054906101000a900473ffffffffffffffffffffffffffffffffffffffff1673ffffffffffffffffffffffffffffffffffffffff163373ffffffffffffffffffffffffffffffffffffffff1614905090565b60008073ffffffffffffffffffffffffffffffffffffffff168273ffffffffffffffffffffffffffffffffffffffff1614151515620005c7576040517f08c379a00000000000000000000000000000000000000000000000000000000081526004018080602001828103825260228152602001807f526f6c65733a206163636f756e7420697320746865207a65726f20616464726581526020017f737300000000000000000000000000000000000000000000000000000000000081525060400191505060405180910390fd5b8260000160008373ffffffffffffffffffffffffffffffffffffffff1673ffffffffffffffffffffffffffffffffffffffff16815260200190815260200160002060009054906101000a900460ff16905092915050565b6130e7806200062e6000396000f3fe6080604052600436106101a1576000357c0100000000000000000000000000000000000000000000000000000000900463ffffffff1680630726429e1461026c57806310eb0e0e1461029757806312065fe014610300578063181783581461032b5780632e1a7d4d1461034257806332a2c5d0146103915780633f4ba83a146103e857806346fbf68e146103ff578063524704ac146104685780635c975abb146104bf5780635f84f302146104ee5780636dd22fc6146105295780636ef8d66d146105585780636f9fb98a1461056f578063715018a61461059a5780637c3a00fd146105b157806382dc1ec4146105dc5780638456cb591461062d5780638a48ac03146106445780638b2d981a146106b05780638da5cb5b146106c75780638f32d59b1461071e578063990e5ca61461074d5780639ba894921461077c578063a15a211c146107a7578063a9713d7f146107be578063c91d956c146107e9578063d0e30db014610824578063e65f2a7e14610842578063eeb7286614610871578063f2fde38b1461089c578063f55487d6146108ed578063f9b6a79614610918575b60008036905014151561021c576040517f08c379a00000000000000000000000000000000000000000000000000000000081526004018080602001828103825260168152602001807f646174612073656e742077697468206d6573736167650000000000000000000081525060200191505060405180910390fd5b3373ffffffffffffffffffffffffffffffffffffffff167f2da466a7b24304f47e87fa2e1e5a81b9831ce54fec19055ce277ca2f39ba42c4346040518082815260200191505060405180910390a2005b34801561027857600080fd5b5061028161092f565b6040518082815260200191505060405180910390f35b3480156102a357600080fd5b506102e6600480360360208110156102ba57600080fd5b81019080803573ffffffffffffffffffffffffffffffffffffffff169060200190929190505050610935565b604051808215151515815260200191505060405180910390f35b34801561030c57600080fd5b50610315610955565b6040518082815260200191505060405180910390f35b34801561033757600080fd5b5061034061099c565b005b34801561034e57600080fd5b5061037b6004803603602081101561036557600080fd5b8101908080359060200190929190505050610c1c565b6040518082815260200191505060405180910390f35b34801561039d57600080fd5b506103a6611057565b604051808273ffffffffffffffffffffffffffffffffffffffff1673ffffffffffffffffffffffffffffffffffffffff16815260200191505060405180910390f35b3480156103f457600080fd5b506103fd61105f565b005b34801561040b57600080fd5b5061044e6004803603602081101561042257600080fd5b81019080803573ffffffffffffffffffffffffffffffffffffffff169060200190929190505050611206565b604051808215151515815260200191505060405180910390f35b34801561047457600080fd5b5061047d611223565b604051808273ffffffffffffffffffffffffffffffffffffffff1673ffffffffffffffffffffffffffffffffffffffff16815260200191505060405180910390f35b3480156104cb57600080fd5b506104d4611249565b604051808215151515815260200191505060405180910390f35b3480156104fa57600080fd5b506105276004803603602081101561051157600080fd5b8101908080359060200190929190505050611260565b005b34801561053557600080fd5b5061053e61135f565b604051808215151515815260200191505060405180910390f35b34801561056457600080fd5b5061056d6115f6565b005b34801561057b57600080fd5b50610584611601565b6040518082815260200191505060405180910390f35b3480156105a657600080fd5b506105af61169c565b005b3480156105bd57600080fd5b506105c66117d7565b6040518082815260200191505060405180910390f35b3480156105e857600080fd5b5061062b600480360360208110156105ff57600080fd5b81019080803573ffffffffffffffffffffffffffffffffffffffff1690602001909291905050506117dd565b005b34801561063957600080fd5b5061064261188c565b005b34801561065057600080fd5b50610659611a34565b6040518080602001828103825283818151815260200191508051906020019060200280838360005b8381101561069c578082015181840152602081019050610681565b505050509050019250505060405180910390f35b3480156106bc57600080fd5b506106c5611b3e565b005b3480156106d357600080fd5b506106dc611c9e565b604051808273ffffffffffffffffffffffffffffffffffffffff1673ffffffffffffffffffffffffffffffffffffffff16815260200191505060405180910390f35b34801561072a57600080fd5b50610733611cc7565b604051808215151515815260200191505060405180910390f35b34801561075957600080fd5b50610762611d1e565b604051808215151515815260200191505060405180910390f35b34801561078857600080fd5b50610791611d31565b6040518082815260200191505060405180910390f35b3480156107b357600080fd5b506107bc611dba565b005b3480156107ca57600080fd5b506107d3612093565b6040518082815260200191505060405180910390f35b3480156107f557600080fd5b506108226004803603602081101561080c57600080fd5b8101908080359060200190929190505050612099565b005b61082c61219f565b6040518082815260200191505060405180910390f35b34801561084e57600080fd5b50610857612487565b604051808215151515815260200191505060405180910390f35b34801561087d57600080fd5b506108866127c7565b6040518082815260200191505060405180910390f35b3480156108a857600080fd5b506108eb600480360360208110156108bf57600080fd5b81019080803573ffffffffffffffffffffffffffffffffffffffff1690602001909291905050506127d3565b005b3480156108f957600080fd5b5061090261285b565b6040518082815260200191505060405180910390f35b34801561092457600080fd5b5061092d612861565b005b60065481565b600b6020528060005260406000206000915054906101000a900460ff1681565b6000600a60003373ffffffffffffffffffffffffffffffffffffffff1673ffffffffffffffffffffffffffffffffffffffff16815260200190815260200160002054905090565b600860019054906101000a900473ffffffffffffffffffffffffffffffffffffffff1673ffffffffffffffffffffffffffffffffffffffff163373ffffffffffffffffffffffffffffffffffffffff16141515610a61576040517f08c379a000000000000000000000000000000000000000000000000000000000815260040180806020018281038252600c8152602001807f556e617574686f7269736564000000000000000000000000000000000000000081525060200191505060405180910390fd5b600260009054906101000a900460ff16151515610ae6576040517f08c379a00000000000000000000000000000000000000000000000000000000081526004018080602001828103825260108152602001807f5061757361626c653a207061757365640000000000000000000000000000000081525060200191505060405180910390fd5b600080600860019054906101000a900473ffffffffffffffffffffffffffffffffffffffff1673ffffffffffffffffffffffffffffffffffffffff1663420b81f66040518163ffffffff167c0100000000000000000000000000000000000000000000000000000000028152600401604080518083038186803b158015610b6c57600080fd5b505afa158015610b80573d6000803e3d6000fd5b505050506040513d6040811015610b9657600080fd5b810190808051906020019092919080519060200190929190505050816fffffffffffffffffffffffffffffffff1691508093508192505050811515610c08577f21377057725737f96cb536a76ef32eb0c7ce90d11fe2d96dd00d32612755ae1d60405160405180910390a15050610c1a565b80600681905550610c176129c2565b50505b565b6000600b60003373ffffffffffffffffffffffffffffffffffffffff1673ffffffffffffffffffffffffffffffffffffffff16815260200190815260200160002060009054906101000a900460ff161515610cdf576040517f08c379a00000000000000000000000000000000000000000000000000000000081526004018080602001828103825260158152602001807f596f75206d75737420666972737420656e726f6c6c000000000000000000000081525060200191505060405180910390fd5b81600081111515610d58576040517f08c379a00000000000000000000000000000000000000000000000000000000081526004018080602001828103825260208152602001807f57697468726177616c206d7573742062652067726561746572207468616e203081525060200191505060405180910390fd5b80600a60003373ffffffffffffffffffffffffffffffffffffffff1673ffffffffffffffffffffffffffffffffffffffff1681526020019081526020016000205410151515610e0f576040517f08c379a00000000000000000000000000000000000000000000000000000000081526004018080602001828103825260148152602001807f496e73756666696369656e742062616c616e636500000000000000000000000081525060200191505060405180910390fd5b600a60003373ffffffffffffffffffffffffffffffffffffffff1673ffffffffffffffffffffffffffffffffffffffff168152602001908152602001600020543073ffffffffffffffffffffffffffffffffffffffff163110151515610edd576040517f08c379a000000000000000000000000000000000000000000000000000000000815260040180806020018281038252601f8152602001807f42616e6b20646f65736e2774206861766520656e6f756768206d6f6e65792e0081525060200191505060405180910390fd5b610f2f83600a60003373ffffffffffffffffffffffffffffffffffffffff1673ffffffffffffffffffffffffffffffffffffffff168152602001908152602001600020546129d490919063ffffffff16565b600a60003373ffffffffffffffffffffffffffffffffffffffff1673ffffffffffffffffffffffffffffffffffffffff168152602001908152602001600020819055503373ffffffffffffffffffffffffffffffffffffffff166108fc849081150290604051600060405180830381858888f19350505050158015610fb8573d6000803e3d6000fd5b50600a60003373ffffffffffffffffffffffffffffffffffffffff1673ffffffffffffffffffffffffffffffffffffffff1681526020019081526020016000205491503373ffffffffffffffffffffffffffffffffffffffff167f92ccf450a286a957af52509bc1c9939d1a6a481783e142e41e2499f0bb66ebc68484604051808381526020018281526020019250505060405180910390a250919050565b600030905090565b61106833611206565b1515611102576040517f08c379a00000000000000000000000000000000000000000000000000000000081526004018080602001828103825260308152602001807f506175736572526f6c653a2063616c6c657220646f6573206e6f74206861766581526020017f207468652050617573657220726f6c650000000000000000000000000000000081525060400191505060405180910390fd5b600260009054906101000a900460ff161515611186576040517f08c379a00000000000000000000000000000000000000000000000000000000081526004018080602001828103825260148152602001807f5061757361626c653a206e6f742070617573656400000000000000000000000081525060200191505060405180910390fd5b6000600260006101000a81548160ff0219169083151502179055507f5db9ee0a495bf2e6ff9c91a7834c1ba4fdd244a5e8aa4e537bd38aeae4b073aa33604051808273ffffffffffffffffffffffffffffffffffffffff1673ffffffffffffffffffffffffffffffffffffffff16815260200191505060405180910390a1565b600061121c826001612a5f90919063ffffffff16565b9050919050565b600860019054906101000a900473ffffffffffffffffffffffffffffffffffffffff1681565b6000600260009054906101000a900460ff16905090565b611268611cc7565b15156112dc576040517f08c379a00000000000000000000000000000000000000000000000000000000081526004018080602001828103825260208152602001807f4f776e61626c653a2063616c6c6572206973206e6f7420746865206f776e657281525060200191505060405180910390fd5b60068111151515611355576040517f08c379a000000000000000000000000000000000000000000000000000000000815260040180806020018281038252601d8152602001807f726174652073686f756c64206265206e6f206d6f7265207468616e203600000081525060200191505060405180910390fd5b8060038190555050565b6000600b60003373ffffffffffffffffffffffffffffffffffffffff1673ffffffffffffffffffffffffffffffffffffffff16815260200190815260200160002060009054906101000a900460ff161515611422576040517f08c379a00000000000000000000000000000000000000000000000000000000081526004018080602001828103825260158152602001807f596f75206d75737420666972737420656e726f6c6c000000000000000000000081525060200191505060405180910390fd5b6000600a60003373ffffffffffffffffffffffffffffffffffffffff1673ffffffffffffffffffffffffffffffffffffffff1681526020019081526020016000205490506000600a60003373ffffffffffffffffffffffffffffffffffffffff1673ffffffffffffffffffffffffffffffffffffffff168152602001908152602001600020819055506000600b60003373ffffffffffffffffffffffffffffffffffffffff1673ffffffffffffffffffffffffffffffffffffffff16815260200190815260200160002060006101000a81548160ff0219169083151502179055506000811115611554573373ffffffffffffffffffffffffffffffffffffffff166108fc829081150290604051600060405180830381858888f19350505050158015611552573d6000803e3d6000fd5b505b3373ffffffffffffffffffffffffffffffffffffffff167f7aada01f2a633efb947ddd92f84368215074ce99a5f64c26640f254736b2f256826040518082815260200191505060405180910390a2600b60003373ffffffffffffffffffffffffffffffffffffffff1673ffffffffffffffffffffffffffffffffffffffff16815260200190815260200160002060009054906101000a900460ff161591505090565b6115ff33612b82565b565b600061160b611cc7565b151561167f576040517f08c379a00000000000000000000000000000000000000000000000000000000081526004018080602001828103825260208152602001807f4f776e61626c653a2063616c6c6572206973206e6f7420746865206f776e657281525060200191505060405180910390fd5b3073ffffffffffffffffffffffffffffffffffffffff1631905090565b6116a4611cc7565b1515611718576040517f08c379a00000000000000000000000000000000000000000000000000000000081526004018080602001828103825260208152602001807f4f776e61626c653a2063616c6c6572206973206e6f7420746865206f776e657281525060200191505060405180910390fd5b600073ffffffffffffffffffffffffffffffffffffffff166000809054906101000a900473ffffffffffffffffffffffffffffffffffffffff1673ffffffffffffffffffffffffffffffffffffffff167f8be0079c531659141344cd1fd0a4f28419497f9722a3daafe3b4186f6b6457e060405160405180910390a360008060006101000a81548173ffffffffffffffffffffffffffffffffffffffff021916908373ffffffffffffffffffffffffffffffffffffffff160217905550565b60035481565b6117e633611206565b1515611880576040517f08c379a00000000000000000000000000000000000000000000000000000000081526004018080602001828103825260308152602001807f506175736572526f6c653a2063616c6c657220646f6573206e6f74206861766581526020017f207468652050617573657220726f6c650000000000000000000000000000000081525060400191505060405180910390fd5b61188981612bdc565b50565b61189533611206565b151561192f576040517f08c379a00000000000000000000000000000000000000000000000000000000081526004018080602001828103825260308152602001807f506175736572526f6c653a2063616c6c657220646f6573206e6f74206861766581526020017f207468652050617573657220726f6c650000000000000000000000000000000081525060400191505060405180910390fd5b600260009054906101000a900460ff161515156119b4576040517f08c379a00000000000000000000000000000000000000000000000000000000081526004018080602001828103825260108152602001807f5061757361626c653a207061757365640000000000000000000000000000000081525060200191505060405180910390fd5b6001600260006101000a81548160ff0219169083151502179055507f62e78cea01bee320cd4e420270b5ea74000d11b0c9f74754ebdbfc544b05a25833604051808273ffffffffffffffffffffffffffffffffffffffff1673ffffffffffffffffffffffffffffffffffffffff16815260200191505060405180910390a1565b6060611a3e611cc7565b1515611ab2576040517f08c379a00000000000000000000000000000000000000000000000000000000081526004018080602001828103825260208152602001807f4f776e61626c653a2063616c6c6572206973206e6f7420746865206f776e657281525060200191505060405180910390fd5b6009805480602002602001604051908101604052809291908181526020018280548015611b3457602002820191906000526020600020905b8160009054906101000a900473ffffffffffffffffffffffffffffffffffffffff1673ffffffffffffffffffffffffffffffffffffffff1681526020019060010190808311611aea575b5050505050905090565b611b46611cc7565b1515611bba576040517f08c379a00000000000000000000000000000000000000000000000000000000081526004018080602001828103825260208152602001807f4f776e61626c653a2063616c6c6572206973206e6f7420746865206f776e657281525060200191505060405180910390fd5b600260009054906101000a900460ff16151515611c3f576040517f08c379a00000000000000000000000000000000000000000000000000000000081526004018080602001828103825260108152602001807f5061757361626c653a207061757365640000000000000000000000000000000081525060200191505060405180910390fd5b600860009054906101000a900460ff1615611c9c576000600860006101000a81548160ff0219169083151502179055507f26c0d6c3c4cb4e0f0bb1588fede18f59384fd7f97b0eb9136e33ef2b6ea2f3af60405160405180910390a15b565b60008060009054906101000a900473ffffffffffffffffffffffffffffffffffffffff16905090565b60008060009054906101000a900473ffffffffffffffffffffffffffffffffffffffff1673ffffffffffffffffffffffffffffffffffffffff163373ffffffffffffffffffffffffffffffffffffffff1614905090565b600860009054906101000a900460ff1681565b6000611d3b611cc7565b1515611daf576040517f08c379a00000000000000000000000000000000000000000000000000000000081526004018080602001828103825260208152602001807f4f776e61626c653a2063616c6c6572206973206e6f7420746865206f776e657281525060200191505060405180910390fd5b600980549050905090565b611dc2611cc7565b1515611e36576040517f08c379a00000000000000000000000000000000000000000000000000000000081526004018080602001828103825260208152602001807f4f776e61626c653a2063616c6c6572206973206e6f7420746865206f776e657281525060200191505060405180910390fd5b600260009054906101000a900460ff16151515611ebb576040517f08c379a00000000000000000000000000000000000000000000000000000000081526004018080602001828103825260108152602001807f5061757361626c653a207061757365640000000000000000000000000000000081525060200191505060405180910390fd5b600860009054906101000a900460ff161515611ed657612091565b60008090505b600980549050811015612056576000600982815481101515611efa57fe5b9060005260206000200160009054906101000a900473ffffffffffffffffffffffffffffffffffffffff1690506000600a60008373ffffffffffffffffffffffffffffffffffffffff1673ffffffffffffffffffffffffffffffffffffffff16815260200190815260200160002054905060008114158015611f7e57506005548110155b15612047576000611f9e618e946003548402612c3690919063ffffffff16565b9050611ff281600a60008673ffffffffffffffffffffffffffffffffffffffff1673ffffffffffffffffffffffffffffffffffffffff16815260200190815260200160002054612cc990919063ffffffff16565b600a60008573ffffffffffffffffffffffffffffffffffffffff1673ffffffffffffffffffffffffffffffffffffffff1681526020019081526020016000208190555080600760008282540192505081905550505b50508080600101915050611edc565b507f53ba314319f9ad9ecc35e1a102b598107f143841d7d768534884a3b6909d4a156007546040518082815260200191505060405180910390a15b565b60055481565b6120a1611cc7565b1515612115576040517f08c379a00000000000000000000000000000000000000000000000000000000081526004018080602001828103825260208152602001807f4f776e61626c653a2063616c6c6572206973206e6f7420746865206f776e657281525060200191505060405180910390fd5b60008111151561218d576040517f08c379a00000000000000000000000000000000000000000000000000000000081526004018080602001828103825260208152602001807f62616c616e63652073686f756c642062652067726561746572207468616e203081525060200191505060405180910390fd5b8060048190555061219c6129c2565b50565b6000600b60003373ffffffffffffffffffffffffffffffffffffffff1673ffffffffffffffffffffffffffffffffffffffff16815260200190815260200160002060009054906101000a900460ff161515612262576040517f08c379a00000000000000000000000000000000000000000000000000000000081526004018080602001828103825260158152602001807f596f75206d75737420666972737420656e726f6c6c000000000000000000000081525060200191505060405180910390fd5b600260009054906101000a900460ff161515156122e7576040517f08c379a00000000000000000000000000000000000000000000000000000000081526004018080602001828103825260108152602001807f5061757361626c653a207061757365640000000000000000000000000000000081525060200191505060405180910390fd5b60003411151561235f576040517f08c379a000000000000000000000000000000000000000000000000000000000815260040180806020018281038252601e8152602001807f4465706f736974206d7573742062652067726561746572207468616e2030000081525060200191505060405180910390fd5b6123b134600a60003373ffffffffffffffffffffffffffffffffffffffff1673ffffffffffffffffffffffffffffffffffffffff16815260200190815260200160002054612cc990919063ffffffff16565b600a60003373ffffffffffffffffffffffffffffffffffffffff1673ffffffffffffffffffffffffffffffffffffffff16815260200190815260200160002081905550600a60003373ffffffffffffffffffffffffffffffffffffffff1673ffffffffffffffffffffffffffffffffffffffff1681526020019081526020016000205490503373ffffffffffffffffffffffffffffffffffffffff167f2da466a7b24304f47e87fa2e1e5a81b9831ce54fec19055ce277ca2f39ba42c4346040518082815260200191505060405180910390a290565b60008073ffffffffffffffffffffffffffffffffffffffff163373ffffffffffffffffffffffffffffffffffffffff161415151561252d576040517f08c379a00000000000000000000000000000000000000000000000000000000081526004018080602001828103825260108152602001807f496e76616c696420616464726573732e0000000000000000000000000000000081525060200191505060405180910390fd5b600b60003373ffffffffffffffffffffffffffffffffffffffff1673ffffffffffffffffffffffffffffffffffffffff16815260200190815260200160002060009054906101000a900460ff161515156125ef576040517f08c379a00000000000000000000000000000000000000000000000000000000081526004018080602001828103825260118152602001807f416c726561647920656e726f6c6c65642e00000000000000000000000000000081525060200191505060405180910390fd5b600260009054906101000a900460ff16151515612674576040517f08c379a00000000000000000000000000000000000000000000000000000000081526004018080602001828103825260108152602001807f5061757361626c653a207061757365640000000000000000000000000000000081525060200191505060405180910390fd5b6001600b60003373ffffffffffffffffffffffffffffffffffffffff1673ffffffffffffffffffffffffffffffffffffffff16815260200190815260200160002060006101000a81548160ff02191690831515021790555060093390806001815401808255809150509060018203906000526020600020016000909192909190916101000a81548173ffffffffffffffffffffffffffffffffffffffff021916908373ffffffffffffffffffffffffffffffffffffffff16021790555050600b60003373ffffffffffffffffffffffffffffffffffffffff1673ffffffffffffffffffffffffffffffffffffffff16815260200190815260200160002060009054906101000a900460ff1690503373ffffffffffffffffffffffffffffffffffffffff167f6132d0e5700fe03060d64172a9ce706f525f7dfacb454a300ba78f4b50fc872260405160405180910390a290565b6000630da4b055905090565b6127db611cc7565b151561284f576040517f08c379a00000000000000000000000000000000000000000000000000000000081526004018080602001828103825260208152602001807f4f776e61626c653a2063616c6c6572206973206e6f7420746865206f776e657281525060200191505060405180910390fd5b61285881612d53565b50565b60045481565b612869611cc7565b15156128dd576040517f08c379a00000000000000000000000000000000000000000000000000000000081526004018080602001828103825260208152602001807f4f776e61626c653a2063616c6c6572206973206e6f7420746865206f776e657281525060200191505060405180910390fd5b600260009054906101000a900460ff16151515612962576040517f08c379a00000000000000000000000000000000000000000000000000000000081526004018080602001828103825260108152602001807f5061757361626c653a207061757365640000000000000000000000000000000081525060200191505060405180910390fd5b600860009054906101000a900460ff1615156129c0576001600860006101000a81548160ff0219169083151502179055507f1d110ef6d9298f409fa8c2070f35bb4346254ce1a8ad58a4d0ca74128736e89860405160405180910390a15b565b600654600a6004540202600581905550565b6000828211151515612a4e576040517f08c379a000000000000000000000000000000000000000000000000000000000815260040180806020018281038252601e8152602001807f536166654d6174683a207375627472616374696f6e206f766572666c6f77000081525060200191505060405180910390fd5b600082840390508091505092915050565b60008073ffffffffffffffffffffffffffffffffffffffff168273ffffffffffffffffffffffffffffffffffffffff1614151515612b2b576040517f08c379a00000000000000000000000000000000000000000000000000000000081526004018080602001828103825260228152602001807f526f6c65733a206163636f756e7420697320746865207a65726f20616464726581526020017f737300000000000000000000000000000000000000000000000000000000000081525060400191505060405180910390fd5b8260000160008373ffffffffffffffffffffffffffffffffffffffff1673ffffffffffffffffffffffffffffffffffffffff16815260200190815260200160002060009054906101000a900460ff16905092915050565b612b96816001612edc90919063ffffffff16565b8073ffffffffffffffffffffffffffffffffffffffff167fcd265ebaf09df2871cc7bd4133404a235ba12eff2041bb89d9c714a2621c7c7e60405160405180910390a250565b612bf0816001612fde90919063ffffffff16565b8073ffffffffffffffffffffffffffffffffffffffff167f6719d08c1888103bea251a4ed56406bd0c3e69723c8a1686e017e7bbe159b6f860405160405180910390a250565b60008082111515612caf576040517f08c379a000000000000000000000000000000000000000000000000000000000815260040180806020018281038252601a8152602001807f536166654d6174683a206469766973696f6e206279207a65726f00000000000081525060200191505060405180910390fd5b60008284811515612cbc57fe5b0490508091505092915050565b6000808284019050838110151515612d49576040517f08c379a000000000000000000000000000000000000000000000000000000000815260040180806020018281038252601b8152602001807f536166654d6174683a206164646974696f6e206f766572666c6f77000000000081525060200191505060405180910390fd5b8091505092915050565b600073ffffffffffffffffffffffffffffffffffffffff168173ffffffffffffffffffffffffffffffffffffffff1614151515612e1e576040517f08c379a00000000000000000000000000000000000000000000000000000000081526004018080602001828103825260268152602001807f4f776e61626c653a206e6577206f776e657220697320746865207a65726f206181526020017f646472657373000000000000000000000000000000000000000000000000000081525060400191505060405180910390fd5b8073ffffffffffffffffffffffffffffffffffffffff166000809054906101000a900473ffffffffffffffffffffffffffffffffffffffff1673ffffffffffffffffffffffffffffffffffffffff167f8be0079c531659141344cd1fd0a4f28419497f9722a3daafe3b4186f6b6457e060405160405180910390a3806000806101000a81548173ffffffffffffffffffffffffffffffffffffffff021916908373ffffffffffffffffffffffffffffffffffffffff16021790555050565b612ee68282612a5f565b1515612f80576040517f08c379a00000000000000000000000000000000000000000000000000000000081526004018080602001828103825260218152602001807f526f6c65733a206163636f756e7420646f6573206e6f74206861766520726f6c81526020017f650000000000000000000000000000000000000000000000000000000000000081525060400191505060405180910390fd5b60008260000160008373ffffffffffffffffffffffffffffffffffffffff1673ffffffffffffffffffffffffffffffffffffffff16815260200190815260200160002060006101000a81548160ff0219169083151502179055505050565b612fe88282612a5f565b15151561305d576040517f08c379a000000000000000000000000000000000000000000000000000000000815260040180806020018281038252601f8152602001807f526f6c65733a206163636f756e7420616c72656164792068617320726f6c650081525060200191505060405180910390fd5b60018260000160008373ffffffffffffffffffffffffffffffffffffffff1673ffffffffffffffffffffffffffffffffffffffff16815260200190815260200160002060006101000a81548160ff021916908315150217905550505056fea165627a7a72305820c17766c7f9dc153a2fb48df900ecdc4137975bdc3a77ce4263eb8acb8ccb2acf0029",
  "source": "pragma solidity ^0.5.0;\n\nimport 'openzeppelin-solidity/contracts/ownership/Ownable.sol';\nimport 'openzeppelin-solidity/contracts/math/SafeMath.sol';\nimport 'openzeppelin-solidity/contracts/lifecycle/Pausable.sol';\nimport \"../contracts/Ilighthouse.sol\"; // Rhombus oracle\nimport \"../contracts/Lighthouse.sol\";\n\n/// @title A bank contract that pays its users interest on a daily basis.\n/// @author David Noel\n/// @notice Interest is based on maintaining a minumum balance in USD, which\n/// is converted to ETH using a rate fed into the contract by an Oracle.\n/// The rate is 10 cents (USD) of ETH.\ncontract SimpleBank is Ownable, Pausable, Searcher {\n    using SafeMath for uint256;\n\n    /// Bank interest rate\n    uint public interestRate = 3;\n    /// Min balance required (USD) to start receiving interest payments.\n    uint public minBalanceUsd = 1;\n    /// Min balance required (ETH)\n    uint public minBalanceEth;\n    /// Ten cents (USD) in ETH. Defaulted using (0.1 USD ~ 0.00033 ETH 6/28/19)\n    uint public tenCents = 330000000000000;\n    /// Total interest paid by bank to date\n    uint private totalInterestPaid;\n    /// Are interest payments running?\n    bool public interestRunning;\n    /// ETHUSD lighthouse oracle\n    ILighthouse  public myLighthouse;\n    /// Array of users registered\n    address[] private accounts;\n    /// Users balance.\n    mapping (address => uint) private balances;\n    /// Function to allow contracts to be able to see if a user is enrolled.\n    mapping (address => bool) public enrolled;\n\n    /// When a user signs up\n    event Enrolled(address indexed accountAddress);\n    /// When a user makes a deposit\n    event Deposited(address indexed accountAddress, uint amount);\n    /// When a user makes a withdrawal\n    event Withdrawn(address indexed accountAddress, uint withdrawAmount, uint newBalance);\n    /// When a user closes their account\n    event ClosedAccount(address indexed accountAddress, uint balanceAtClose);\n    /// When interest payment starts\n    event InterestStarted();\n    /// When interest payment stops\n    event InterestStopped();\n    // When interest is paid by bank\n    event InterestPaid(uint _totalInterestPaid);\n    /// When oracle data is not valid\n    event DataNotValid();\n\n    /// Check if user is enrolled.\n    modifier isEnrolled(){\n        require(enrolled[msg.sender], \"You must first enroll\");\n        _;\n    }\n\n    /// Check user is not already enrolled, and user address is valid.\n    modifier checkEnroll(){\n        require(msg.sender != address(0), \"Invalid address.\");\n        require(!enrolled[msg.sender], \"Already enrolled.\");\n        _;\n    }\n\n    /// Ensure user has enough balance to withdraw, and bank can pay user.\n    modifier checkWithdraw(uint withdrawAmount){\n        require(withdrawAmount > 0, \"Withrawal must be greater than 0\");\n        require(balances[msg.sender] >= withdrawAmount, \"Insufficient balance\");\n        require(address(this).balance >= balances[msg.sender],\"Bank doesn't have enough money.\");\n        _;\n    }\n\n    /// Ensures sender is oracle.\n    modifier onlyLighthouse {\n        require (msg.sender == address(myLighthouse), \"Unauthorised\");\n        _;\n    }\n\n    /**\n     * @dev Initializes the contract setting the deployer as the initial owner\n     * the Rhombus Oracle address, the minumum balance in ETH, and starts interest payments\n     */\n    constructor(ILighthouse _myLighthouse) public {\n        myLighthouse = _myLighthouse;\n        updateMinBalanceEth();\n        startPayments();\n    }\n\n    /// @notice Enroll a customer with the bank\n    /// @return The users enrolled status\n    function enroll() public checkEnroll whenNotPaused returns (bool _enrolled){\n        enrolled[msg.sender] = true;\n        accounts.push(msg.sender);\n        _enrolled = enrolled[msg.sender];\n        emit Enrolled(msg.sender);\n    }\n\n    /// @notice Deposit ether into bank\n    /// @return The balance of the user after the deposit is made\n    function deposit() external payable isEnrolled whenNotPaused returns (uint _balance) {\n        require(msg.value > 0, \"Deposit must be greater than 0\");\n        balances[msg.sender] = balances[msg.sender].add(msg.value);\n        _balance = balances[msg.sender];\n        emit Deposited(msg.sender, msg.value);\n    }\n\n    /// @notice Withdraw ether from bank using pull pattern (to prevent re-entrancy)\n    /// checks-effects-interaction pattern to prevent re-entrancy\n    /// @dev This does not return any excess ether sent to it\n    /// @param withdrawAmount amount you want to withdraw\n    /// @return The balance remaining for the user\n    function withdraw(uint withdrawAmount) external isEnrolled checkWithdraw(withdrawAmount) returns (uint _balance) {\n        balances[msg.sender] = balances[msg.sender].sub(withdrawAmount);\n        msg.sender.transfer(withdrawAmount);\n        _balance = balances[msg.sender];\n        emit Withdrawn(msg.sender, withdrawAmount, _balance);\n    }\n\n    /// @notice Close bank account and return all user's balance to them.\n    /// checks-effects-interaction pattern to prevent re-entrancy\n    /// @return The enrolled status of the user.\n    function closeAccount() external isEnrolled returns (bool) {\n        uint totalBalance = balances[msg.sender];\n        balances[msg.sender] = 0;\n        enrolled[msg.sender] = false;\n        if(totalBalance > 0){\n            msg.sender.transfer(totalBalance);\n        }\n        emit ClosedAccount(msg.sender, totalBalance);\n        return !enrolled[msg.sender];\n    }\n\n    /// @notice Get account balance\n    /// @return The balance of the user\n    function getBalance() public view returns (uint) {\n        return balances[msg.sender];\n    }\n\n    /// @notice Get all registered accounts\n    /// @return Array of accounts\n    function getAccounts() public view onlyOwner returns (address[] memory) {\n        return accounts;\n    }\n\n    /// @notice Get total accounts\n    /// @return Account total\n    function getNumAccounts() public view onlyOwner returns (uint) {\n        return accounts.length;\n    }\n\n    /// @notice Get address of this contract\n    /// @return The contract address\n    function getContractAddress() public view returns (address) {\n        return address(this);\n    }\n\n    /// @notice Get contract balance\n    /// @return The balance of the contract\n    function getContractBalance() public view onlyOwner returns(uint) {\n        return address(this).balance;\n    }\n\n    /// @notice Set the bank interest rate.\n    function setInterestRate(uint _rate) public onlyOwner {\n        require(_rate <= 6, \"rate should be no more than 6\");\n        interestRate = _rate;\n    }\n\n    /// @notice Set the minimum balance (USD, ETH) required to start receiving interest.\n    function setMinBalance(uint _minBalance) public onlyOwner {\n        require(_minBalance > 0, \"balance should be greater than 0\");\n        minBalanceUsd = _minBalance;\n        updateMinBalanceEth();\n    }\n\n    /// @notice Start interest payments. Circuit breaker pattern used.\n    function startPayments() public onlyOwner whenNotPaused {\n        if(!interestRunning){\n        interestRunning = true;\n        emit InterestStarted();\n        }\n    }\n\n    /// @notice Stop interest payments. Circuit breaker pattern used.\n    function stopPayments() public onlyOwner whenNotPaused {\n        if(interestRunning){\n        interestRunning = false;\n        emit InterestStopped();\n        }\n    }\n\n    /// @notice Set 10 cents (USD) worth of ether. This will be called only by\n    /// the oracle, and when the contract is not paused (circuit breaker pattern).\n    function poke() public onlyLighthouse whenNotPaused {\n        bool _valid;\n        uint _tenCents;\n            (_tenCents, _valid) = myLighthouse.peekData();\n            if (!_valid) {\n                emit DataNotValid();\n                return;\n            }\n            tenCents = _tenCents;\n            updateMinBalanceEth();\n    }\n\n    /// @notice Pays interest to every account once criteria is met\n    /// @dev Warn: Unbounded for loop is an anti-pattern\n    function payInterest() external onlyOwner whenNotPaused {\n        if (!interestRunning) return;\n        for (uint i = 0; i < accounts.length; i++) {\n            address customerAddress = accounts[i];\n            /// get customer balance\n            uint balance = balances[customerAddress];\n            /// Is customer eligible to receive interest payments ?\n            if(balance != 0 && balance >= minBalanceEth){\n                uint interest = (balance * interestRate).div(36500);\n                balances[customerAddress] = balances[customerAddress].add(interest);\n                totalInterestPaid += interest;\n            }\n        }\n        emit InterestPaid(totalInterestPaid);\n    }\n\n    /// @notice Set the minimum balance in ETH.\n    function updateMinBalanceEth() private {\n        minBalanceEth = minBalanceUsd * 10 * tenCents;\n    }\n\n    // Fallback function - Called if other functions don't match call or\n    // sent ether without data\n    function() external payable {\n        require(msg.data.length == 0, \"data sent with message\");\n        emit Deposited(msg.sender, msg.value);\n    }\n}",
  "sourcePath": "/Users/dnoel/Documents/projects/consensys/finalproject/simple-bank-exercise-atlanticstarr1/contracts/SimpleBank.sol",
  "compiler": {
    "name": "solc",
    "version": "0.5.0+commit.1d4f565a.Emscripten.clang"
  },
  "schemaVersion": "3.0.9",
  "updatedAt": "2019-06-28T18:11:07.790Z",
  "devdoc": {
    "author": "David Noel",
    "methods": {
      "closeAccount()": {
        "return": "The enrolled status of the user."
      },
      "constructor": {
        "details": "Initializes the contract setting the deployer as the initial owner the Rhombus Oracle address, the minumum balance in ETH, and starts interest payments"
      },
      "deposit()": {
        "return": "The balance of the user after the deposit is made"
      },
      "enroll()": {
        "return": "The users enrolled status"
      },
      "getAccounts()": {
        "return": "Array of accounts"
      },
      "getBalance()": {
        "return": "The balance of the user"
      },
      "getContractAddress()": {
        "return": "The contract address"
      },
      "getContractBalance()": {
        "return": "The balance of the contract"
      },
      "getNumAccounts()": {
        "return": "Account total"
      },
      "isOwner()": {
        "details": "Returns true if the caller is the current owner.\r"
      },
      "owner()": {
        "details": "Returns the address of the current owner.\r"
      },
      "pause()": {
        "details": "Called by a pauser to pause, triggers stopped state.\r"
      },
      "paused()": {
        "details": "Returns true if the contract is paused, and false otherwise.\r"
      },
      "payInterest()": {
        "details": "Warn: Unbounded for loop is an anti-pattern"
      },
      "renounceOwnership()": {
        "details": "Leaves the contract without owner. It will not be possible to call\r `onlyOwner` functions anymore. Can only be called by the current owner.\r      * > Note: Renouncing ownership will leave the contract without an owner,\r thereby removing any functionality that is only available to the owner.\r"
      },
      "transferOwnership(address)": {
        "details": "Transfers ownership of the contract to a new account (`newOwner`).\r Can only be called by the current owner.\r"
      },
      "unpause()": {
        "details": "Called by a pauser to unpause, returns to normal state.\r"
      },
      "withdraw(uint256)": {
        "details": "This does not return any excess ether sent to it",
        "params": {
          "withdrawAmount": "amount you want to withdraw"
        },
        "return": "The balance remaining for the user"
      }
    },
    "title": "A bank contract that pays its users interest on a daily basis."
  },
  "userdoc": {
    "methods": {
      "closeAccount()": {
        "notice": "Close bank account and return all user's balance to them. checks-effects-interaction pattern to prevent re-entrancy"
      },
      "deposit()": {
        "notice": "Deposit ether into bank"
      },
      "enroll()": {
        "notice": "Enroll a customer with the bank"
      },
      "getAccounts()": {
        "notice": "Get all registered accounts"
      },
      "getBalance()": {
        "notice": "Get account balance"
      },
      "getContractAddress()": {
        "notice": "Get address of this contract"
      },
      "getContractBalance()": {
        "notice": "Get contract balance"
      },
      "getNumAccounts()": {
        "notice": "Get total accounts"
      },
      "payInterest()": {
        "notice": "Pays interest to every account once criteria is met"
      },
      "poke()": {
        "notice": "Set 10 cents (USD) worth of ether. This will be called only by the oracle, and when the contract is not paused (circuit breaker pattern)."
      },
      "setInterestRate(uint256)": {
        "notice": "Set the bank interest rate."
      },
      "setMinBalance(uint256)": {
        "notice": "Set the minimum balance (USD, ETH) required to start receiving interest."
      },
      "startPayments()": {
        "notice": "Start interest payments. Circuit breaker pattern used."
      },
      "stopPayments()": {
        "notice": "Stop interest payments. Circuit breaker pattern used."
      },
      "withdraw(uint256)": {
        "notice": "Withdraw ether from bank using pull pattern (to prevent re-entrancy) checks-effects-interaction pattern to prevent re-entrancy"
      }
    },
    "notice": "Interest is based on maintaining a minumum balance in USD, which is converted to ETH using a rate fed into the contract by an Oracle. The rate is 10 cents (USD) of ETH."
  }
}