{
  "contractName": "SimpleBank",
  "abi": [
    {
      "constant": true,
      "inputs": [
        {
          "name": "",
          "type": "address"
        }
      ],
      "name": "enrolled",
      "outputs": [
        {
          "name": "",
          "type": "bool"
        }
      ],
      "payable": false,
      "stateMutability": "view",
      "type": "function"
    },
    {
      "constant": false,
      "inputs": [],
      "name": "unpause",
      "outputs": [],
      "payable": false,
      "stateMutability": "nonpayable",
      "type": "function"
    },
    {
      "constant": true,
      "inputs": [
        {
          "name": "account",
          "type": "address"
        }
      ],
      "name": "isPauser",
      "outputs": [
        {
          "name": "",
          "type": "bool"
        }
      ],
      "payable": false,
      "stateMutability": "view",
      "type": "function"
    },
    {
      "constant": true,
      "inputs": [],
      "name": "myLighthouse",
      "outputs": [
        {
          "name": "",
          "type": "address"
        }
      ],
      "payable": false,
      "stateMutability": "view",
      "type": "function"
    },
    {
      "constant": true,
      "inputs": [],
      "name": "paused",
      "outputs": [
        {
          "name": "",
          "type": "bool"
        }
      ],
      "payable": false,
      "stateMutability": "view",
      "type": "function"
    },
    {
      "constant": false,
      "inputs": [],
      "name": "renouncePauser",
      "outputs": [],
      "payable": false,
      "stateMutability": "nonpayable",
      "type": "function"
    },
    {
      "constant": false,
      "inputs": [],
      "name": "renounceOwnership",
      "outputs": [],
      "payable": false,
      "stateMutability": "nonpayable",
      "type": "function"
    },
    {
      "constant": true,
      "inputs": [],
      "name": "interestRate",
      "outputs": [
        {
          "name": "",
          "type": "uint256"
        }
      ],
      "payable": false,
      "stateMutability": "view",
      "type": "function"
    },
    {
      "constant": false,
      "inputs": [
        {
          "name": "account",
          "type": "address"
        }
      ],
      "name": "addPauser",
      "outputs": [],
      "payable": false,
      "stateMutability": "nonpayable",
      "type": "function"
    },
    {
      "constant": false,
      "inputs": [],
      "name": "pause",
      "outputs": [],
      "payable": false,
      "stateMutability": "nonpayable",
      "type": "function"
    },
    {
      "constant": true,
      "inputs": [],
      "name": "owner",
      "outputs": [
        {
          "name": "",
          "type": "address"
        }
      ],
      "payable": false,
      "stateMutability": "view",
      "type": "function"
    },
    {
      "constant": true,
      "inputs": [],
      "name": "isOwner",
      "outputs": [
        {
          "name": "",
          "type": "bool"
        }
      ],
      "payable": false,
      "stateMutability": "view",
      "type": "function"
    },
    {
      "constant": true,
      "inputs": [],
      "name": "minBalanceEth",
      "outputs": [
        {
          "name": "",
          "type": "uint256"
        }
      ],
      "payable": false,
      "stateMutability": "view",
      "type": "function"
    },
    {
      "constant": true,
      "inputs": [],
      "name": "running",
      "outputs": [
        {
          "name": "",
          "type": "bool"
        }
      ],
      "payable": false,
      "stateMutability": "view",
      "type": "function"
    },
    {
      "constant": true,
      "inputs": [],
      "name": "identify",
      "outputs": [
        {
          "name": "",
          "type": "uint256"
        }
      ],
      "payable": false,
      "stateMutability": "pure",
      "type": "function"
    },
    {
      "constant": false,
      "inputs": [
        {
          "name": "newOwner",
          "type": "address"
        }
      ],
      "name": "transferOwnership",
      "outputs": [],
      "payable": false,
      "stateMutability": "nonpayable",
      "type": "function"
    },
    {
      "constant": true,
      "inputs": [],
      "name": "minBalanceUsd",
      "outputs": [
        {
          "name": "",
          "type": "uint256"
        }
      ],
      "payable": false,
      "stateMutability": "view",
      "type": "function"
    },
    {
      "inputs": [
        {
          "name": "_myLighthouse",
          "type": "address"
        }
      ],
      "payable": false,
      "stateMutability": "nonpayable",
      "type": "constructor"
    },
    {
      "payable": true,
      "stateMutability": "payable",
      "type": "fallback"
    },
    {
      "anonymous": false,
      "inputs": [
        {
          "indexed": true,
          "name": "accountAddress",
          "type": "address"
        }
      ],
      "name": "Enrolled",
      "type": "event"
    },
    {
      "anonymous": false,
      "inputs": [
        {
          "indexed": true,
          "name": "accountAddress",
          "type": "address"
        },
        {
          "indexed": false,
          "name": "amount",
          "type": "uint256"
        }
      ],
      "name": "Deposited",
      "type": "event"
    },
    {
      "anonymous": false,
      "inputs": [
        {
          "indexed": true,
          "name": "accountAddress",
          "type": "address"
        },
        {
          "indexed": false,
          "name": "withdrawAmount",
          "type": "uint256"
        },
        {
          "indexed": false,
          "name": "newBalance",
          "type": "uint256"
        }
      ],
      "name": "Withdrawn",
      "type": "event"
    },
    {
      "anonymous": false,
      "inputs": [
        {
          "indexed": true,
          "name": "accountAddress",
          "type": "address"
        },
        {
          "indexed": false,
          "name": "balanceAtClose",
          "type": "uint256"
        }
      ],
      "name": "ClosedAccount",
      "type": "event"
    },
    {
      "anonymous": false,
      "inputs": [
        {
          "indexed": false,
          "name": "_rate",
          "type": "uint256"
        },
        {
          "indexed": false,
          "name": "_minBalanceRequired",
          "type": "uint256"
        }
      ],
      "name": "InterestPaymentStarted",
      "type": "event"
    },
    {
      "anonymous": false,
      "inputs": [],
      "name": "InterestPaymentStopped",
      "type": "event"
    },
    {
      "anonymous": false,
      "inputs": [
        {
          "indexed": false,
          "name": "_totalInterest",
          "type": "uint256"
        }
      ],
      "name": "InterestPaid",
      "type": "event"
    },
    {
      "anonymous": false,
      "inputs": [],
      "name": "DataNotValid",
      "type": "event"
    },
    {
      "anonymous": false,
      "inputs": [
        {
          "indexed": false,
          "name": "account",
          "type": "address"
        }
      ],
      "name": "Paused",
      "type": "event"
    },
    {
      "anonymous": false,
      "inputs": [
        {
          "indexed": false,
          "name": "account",
          "type": "address"
        }
      ],
      "name": "Unpaused",
      "type": "event"
    },
    {
      "anonymous": false,
      "inputs": [
        {
          "indexed": true,
          "name": "account",
          "type": "address"
        }
      ],
      "name": "PauserAdded",
      "type": "event"
    },
    {
      "anonymous": false,
      "inputs": [
        {
          "indexed": true,
          "name": "account",
          "type": "address"
        }
      ],
      "name": "PauserRemoved",
      "type": "event"
    },
    {
      "anonymous": false,
      "inputs": [
        {
          "indexed": true,
          "name": "previousOwner",
          "type": "address"
        },
        {
          "indexed": true,
          "name": "newOwner",
          "type": "address"
        }
      ],
      "name": "OwnershipTransferred",
      "type": "event"
    },
    {
      "constant": false,
      "inputs": [],
      "name": "enroll",
      "outputs": [
        {
          "name": "_enrolled",
          "type": "bool"
        }
      ],
      "payable": false,
      "stateMutability": "nonpayable",
      "type": "function"
    },
    {
      "constant": false,
      "inputs": [],
      "name": "deposit",
      "outputs": [
        {
          "name": "_balance",
          "type": "uint256"
        }
      ],
      "payable": true,
      "stateMutability": "payable",
      "type": "function"
    },
    {
      "constant": false,
      "inputs": [
        {
          "name": "withdrawAmount",
          "type": "uint256"
        }
      ],
      "name": "withdraw",
      "outputs": [
        {
          "name": "_balance",
          "type": "uint256"
        }
      ],
      "payable": false,
      "stateMutability": "nonpayable",
      "type": "function"
    },
    {
      "constant": false,
      "inputs": [],
      "name": "closeAccount",
      "outputs": [
        {
          "name": "",
          "type": "bool"
        }
      ],
      "payable": false,
      "stateMutability": "nonpayable",
      "type": "function"
    },
    {
      "constant": true,
      "inputs": [],
      "name": "getBalance",
      "outputs": [
        {
          "name": "",
          "type": "uint256"
        }
      ],
      "payable": false,
      "stateMutability": "view",
      "type": "function"
    },
    {
      "constant": true,
      "inputs": [],
      "name": "getAccounts",
      "outputs": [
        {
          "name": "",
          "type": "address[]"
        }
      ],
      "payable": false,
      "stateMutability": "view",
      "type": "function"
    },
    {
      "constant": true,
      "inputs": [],
      "name": "getNumAccounts",
      "outputs": [
        {
          "name": "",
          "type": "uint256"
        }
      ],
      "payable": false,
      "stateMutability": "view",
      "type": "function"
    },
    {
      "constant": true,
      "inputs": [],
      "name": "getContractAddress",
      "outputs": [
        {
          "name": "",
          "type": "address"
        }
      ],
      "payable": false,
      "stateMutability": "view",
      "type": "function"
    },
    {
      "constant": true,
      "inputs": [],
      "name": "getContractBalance",
      "outputs": [
        {
          "name": "",
          "type": "uint256"
        }
      ],
      "payable": false,
      "stateMutability": "view",
      "type": "function"
    },
    {
      "constant": false,
      "inputs": [
        {
          "name": "_rate",
          "type": "uint256"
        }
      ],
      "name": "setInterestRate",
      "outputs": [],
      "payable": false,
      "stateMutability": "nonpayable",
      "type": "function"
    },
    {
      "constant": false,
      "inputs": [
        {
          "name": "_minBalance",
          "type": "uint256"
        }
      ],
      "name": "setMinBalance",
      "outputs": [],
      "payable": false,
      "stateMutability": "nonpayable",
      "type": "function"
    },
    {
      "constant": false,
      "inputs": [],
      "name": "startPayments",
      "outputs": [],
      "payable": false,
      "stateMutability": "nonpayable",
      "type": "function"
    },
    {
      "constant": false,
      "inputs": [],
      "name": "stopPayments",
      "outputs": [],
      "payable": false,
      "stateMutability": "nonpayable",
      "type": "function"
    },
    {
      "constant": false,
      "inputs": [],
      "name": "poke",
      "outputs": [],
      "payable": false,
      "stateMutability": "nonpayable",
      "type": "function"
    }
  ],
  "bytecode": "0x6080604052600380556001600455660b5e620f4800006005553480156200002557600080fd5b50604051602080620035a0833981018060405260208110156200004757600080fd5b8101908080519060200190929190505050336000806101000a81548173ffffffffffffffffffffffffffffffffffffffff021916908373ffffffffffffffffffffffffffffffffffffffff1602179055506000809054906101000a900473ffffffffffffffffffffffffffffffffffffffff1673ffffffffffffffffffffffffffffffffffffffff16600073ffffffffffffffffffffffffffffffffffffffff167f8be0079c531659141344cd1fd0a4f28419497f9722a3daafe3b4186f6b6457e060405160405180910390a36200012e33620001aa640100000000026401000000009004565b6000600260006101000a81548160ff02191690831515021790555080600760016101000a81548173ffffffffffffffffffffffffffffffffffffffff021916908373ffffffffffffffffffffffffffffffffffffffff160217905550620001a362000214640100000000026401000000009004565b506200060a565b620001ce816001620003a06401000000000262002e7d179091906401000000009004565b8073ffffffffffffffffffffffffffffffffffffffff167f6719d08c1888103bea251a4ed56406bd0c3e69723c8a1686e017e7bbe159b6f860405160405180910390a250565b6200022d6200048f640100000000026401000000009004565b1515620002a2576040517f08c379a00000000000000000000000000000000000000000000000000000000081526004018080602001828103825260208152602001807f4f776e61626c653a2063616c6c6572206973206e6f7420746865206f776e657281525060200191505060405180910390fd5b600260009054906101000a900460ff1615151562000328576040517f08c379a00000000000000000000000000000000000000000000000000000000081526004018080602001828103825260108152602001807f5061757361626c653a207061757365640000000000000000000000000000000081525060200191505060405180910390fd5b600760009054906101000a900460ff1615156200039e576001600760006101000a81548160ff0219169083151502179055507fb649edc74cd53433b79a1a19533b3da41388aced726877221cdcc8f62aa2e167600354600454604051808381526020018281526020019250505060405180910390a15b565b620003bb8282620004e6640100000000026401000000009004565b15151562000431576040517f08c379a000000000000000000000000000000000000000000000000000000000815260040180806020018281038252601f8152602001807f526f6c65733a206163636f756e7420616c72656164792068617320726f6c650081525060200191505060405180910390fd5b60018260000160008373ffffffffffffffffffffffffffffffffffffffff1673ffffffffffffffffffffffffffffffffffffffff16815260200190815260200160002060006101000a81548160ff0219169083151502179055505050565b60008060009054906101000a900473ffffffffffffffffffffffffffffffffffffffff1673ffffffffffffffffffffffffffffffffffffffff163373ffffffffffffffffffffffffffffffffffffffff1614905090565b60008073ffffffffffffffffffffffffffffffffffffffff168273ffffffffffffffffffffffffffffffffffffffff1614151515620005b3576040517f08c379a00000000000000000000000000000000000000000000000000000000081526004018080602001828103825260228152602001807f526f6c65733a206163636f756e7420697320746865207a65726f20616464726581526020017f737300000000000000000000000000000000000000000000000000000000000081525060400191505060405180910390fd5b8260000160008373ffffffffffffffffffffffffffffffffffffffff1673ffffffffffffffffffffffffffffffffffffffff16815260200190815260200160002060009054906101000a900460ff16905092915050565b612f86806200061a6000396000f3fe60806040526004361061018b576000357c0100000000000000000000000000000000000000000000000000000000900463ffffffff16806310eb0e0e1461025657806312065fe0146102bf57806318178358146102ea5780632e1a7d4d1461030157806332a2c5d0146103505780633f4ba83a146103a757806346fbf68e146103be578063524704ac146104275780635c975abb1461047e5780635f84f302146104ad5780636dd22fc6146104e85780636ef8d66d146105175780636f9fb98a1461052e578063715018a6146105595780637c3a00fd1461057057806382dc1ec41461059b5780638456cb59146105ec5780638a48ac03146106035780638b2d981a1461066f5780638da5cb5b146106865780638f32d59b146106dd5780639ba894921461070c578063a9713d7f14610737578063c91d956c14610762578063d0e30db01461079d578063d85bd526146107bb578063e65f2a7e146107ea578063eeb7286614610819578063f2fde38b14610844578063f55487d614610895578063f9b6a796146108c0575b600080369050141515610206576040517f08c379a00000000000000000000000000000000000000000000000000000000081526004018080602001828103825260168152602001807f646174612073656e742077697468206d6573736167650000000000000000000081525060200191505060405180910390fd5b3373ffffffffffffffffffffffffffffffffffffffff167f2da466a7b24304f47e87fa2e1e5a81b9831ce54fec19055ce277ca2f39ba42c4346040518082815260200191505060405180910390a2005b34801561026257600080fd5b506102a56004803603602081101561027957600080fd5b81019080803573ffffffffffffffffffffffffffffffffffffffff1690602001909291905050506108d7565b604051808215151515815260200191505060405180910390f35b3480156102cb57600080fd5b506102d46108f7565b6040518082815260200191505060405180910390f35b3480156102f657600080fd5b506102ff61093e565b005b34801561030d57600080fd5b5061033a6004803603602081101561032457600080fd5b8101908080359060200190929190505050610bdb565b6040518082815260200191505060405180910390f35b34801561035c57600080fd5b50610365611016565b604051808273ffffffffffffffffffffffffffffffffffffffff1673ffffffffffffffffffffffffffffffffffffffff16815260200191505060405180910390f35b3480156103b357600080fd5b506103bc61101e565b005b3480156103ca57600080fd5b5061040d600480360360208110156103e157600080fd5b81019080803573ffffffffffffffffffffffffffffffffffffffff1690602001909291905050506111c5565b604051808215151515815260200191505060405180910390f35b34801561043357600080fd5b5061043c6111e2565b604051808273ffffffffffffffffffffffffffffffffffffffff1673ffffffffffffffffffffffffffffffffffffffff16815260200191505060405180910390f35b34801561048a57600080fd5b50610493611208565b604051808215151515815260200191505060405180910390f35b3480156104b957600080fd5b506104e6600480360360208110156104d057600080fd5b810190808035906020019092919050505061121f565b005b3480156104f457600080fd5b506104fd61131e565b604051808215151515815260200191505060405180910390f35b34801561052357600080fd5b5061052c6115b5565b005b34801561053a57600080fd5b506105436115c0565b6040518082815260200191505060405180910390f35b34801561056557600080fd5b5061056e61165b565b005b34801561057c57600080fd5b50610585611796565b6040518082815260200191505060405180910390f35b3480156105a757600080fd5b506105ea600480360360208110156105be57600080fd5b81019080803573ffffffffffffffffffffffffffffffffffffffff16906020019092919050505061179c565b005b3480156105f857600080fd5b5061060161184b565b005b34801561060f57600080fd5b506106186119f3565b6040518080602001828103825283818151815260200191508051906020019060200280838360005b8381101561065b578082015181840152602081019050610640565b505050509050019250505060405180910390f35b34801561067b57600080fd5b50610684611afd565b005b34801561069257600080fd5b5061069b611c5d565b604051808273ffffffffffffffffffffffffffffffffffffffff1673ffffffffffffffffffffffffffffffffffffffff16815260200191505060405180910390f35b3480156106e957600080fd5b506106f2611c86565b604051808215151515815260200191505060405180910390f35b34801561071857600080fd5b50610721611cdd565b6040518082815260200191505060405180910390f35b34801561074357600080fd5b5061074c611d66565b6040518082815260200191505060405180910390f35b34801561076e57600080fd5b5061079b6004803603602081101561078557600080fd5b8101908080359060200190929190505050611d6c565b005b6107a5611e6a565b6040518082815260200191505060405180910390f35b3480156107c757600080fd5b506107d0612152565b604051808215151515815260200191505060405180910390f35b3480156107f657600080fd5b506107ff612165565b604051808215151515815260200191505060405180910390f35b34801561082557600080fd5b5061082e6124a5565b6040518082815260200191505060405180910390f35b34801561085057600080fd5b506108936004803603602081101561086757600080fd5b81019080803573ffffffffffffffffffffffffffffffffffffffff1690602001909291905050506124b1565b005b3480156108a157600080fd5b506108aa612539565b6040518082815260200191505060405180910390f35b3480156108cc57600080fd5b506108d561253f565b005b600a6020528060005260406000206000915054906101000a900460ff1681565b6000600960003373ffffffffffffffffffffffffffffffffffffffff1673ffffffffffffffffffffffffffffffffffffffff16815260200190815260200160002054905090565b600760019054906101000a900473ffffffffffffffffffffffffffffffffffffffff1673ffffffffffffffffffffffffffffffffffffffff163373ffffffffffffffffffffffffffffffffffffffff16141515610a03576040517f08c379a000000000000000000000000000000000000000000000000000000000815260040180806020018281038252600c8152602001807f556e617574686f7269736564000000000000000000000000000000000000000081525060200191505060405180910390fd5b600260009054906101000a900460ff16151515610a88576040517f08c379a00000000000000000000000000000000000000000000000000000000081526004018080602001828103825260108152602001807f5061757361626c653a207061757365640000000000000000000000000000000081525060200191505060405180910390fd5b600080600760009054906101000a900460ff1615610bd657600760019054906101000a900473ffffffffffffffffffffffffffffffffffffffff1673ffffffffffffffffffffffffffffffffffffffff1663420b81f66040518163ffffffff167c0100000000000000000000000000000000000000000000000000000000028152600401604080518083038186803b158015610b2357600080fd5b505afa158015610b37573d6000803e3d6000fd5b505050506040513d6040811015610b4d57600080fd5b810190808051906020019092919080519060200190929190505050816fffffffffffffffffffffffffffffffff1691508093508192505050811515610bbf577f21377057725737f96cb536a76ef32eb0c7ce90d11fe2d96dd00d32612755ae1d60405160405180910390a15050610bd9565b600454600a820202600581905550610bd56126b7565b5b50505b565b6000600a60003373ffffffffffffffffffffffffffffffffffffffff1673ffffffffffffffffffffffffffffffffffffffff16815260200190815260200160002060009054906101000a900460ff161515610c9e576040517f08c379a00000000000000000000000000000000000000000000000000000000081526004018080602001828103825260158152602001807f596f75206d75737420666972737420656e726f6c6c000000000000000000000081525060200191505060405180910390fd5b81600081111515610d17576040517f08c379a00000000000000000000000000000000000000000000000000000000081526004018080602001828103825260208152602001807f57697468726177616c206d7573742062652067726561746572207468616e203081525060200191505060405180910390fd5b80600960003373ffffffffffffffffffffffffffffffffffffffff1673ffffffffffffffffffffffffffffffffffffffff1681526020019081526020016000205410151515610dce576040517f08c379a00000000000000000000000000000000000000000000000000000000081526004018080602001828103825260148152602001807f496e73756666696369656e742062616c616e636500000000000000000000000081525060200191505060405180910390fd5b600960003373ffffffffffffffffffffffffffffffffffffffff1673ffffffffffffffffffffffffffffffffffffffff168152602001908152602001600020543073ffffffffffffffffffffffffffffffffffffffff163110151515610e9c576040517f08c379a000000000000000000000000000000000000000000000000000000000815260040180806020018281038252601f8152602001807f42616e6b20646f65736e2774206861766520656e6f756768206d6f6e65792e0081525060200191505060405180910390fd5b610eee83600960003373ffffffffffffffffffffffffffffffffffffffff1673ffffffffffffffffffffffffffffffffffffffff1681526020019081526020016000205461287390919063ffffffff16565b600960003373ffffffffffffffffffffffffffffffffffffffff1673ffffffffffffffffffffffffffffffffffffffff168152602001908152602001600020819055503373ffffffffffffffffffffffffffffffffffffffff166108fc849081150290604051600060405180830381858888f19350505050158015610f77573d6000803e3d6000fd5b50600960003373ffffffffffffffffffffffffffffffffffffffff1673ffffffffffffffffffffffffffffffffffffffff1681526020019081526020016000205491503373ffffffffffffffffffffffffffffffffffffffff167f92ccf450a286a957af52509bc1c9939d1a6a481783e142e41e2499f0bb66ebc68484604051808381526020018281526020019250505060405180910390a250919050565b600030905090565b611027336111c5565b15156110c1576040517f08c379a00000000000000000000000000000000000000000000000000000000081526004018080602001828103825260308152602001807f506175736572526f6c653a2063616c6c657220646f6573206e6f74206861766581526020017f207468652050617573657220726f6c650000000000000000000000000000000081525060400191505060405180910390fd5b600260009054906101000a900460ff161515611145576040517f08c379a00000000000000000000000000000000000000000000000000000000081526004018080602001828103825260148152602001807f5061757361626c653a206e6f742070617573656400000000000000000000000081525060200191505060405180910390fd5b6000600260006101000a81548160ff0219169083151502179055507f5db9ee0a495bf2e6ff9c91a7834c1ba4fdd244a5e8aa4e537bd38aeae4b073aa33604051808273ffffffffffffffffffffffffffffffffffffffff1673ffffffffffffffffffffffffffffffffffffffff16815260200191505060405180910390a1565b60006111db8260016128fe90919063ffffffff16565b9050919050565b600760019054906101000a900473ffffffffffffffffffffffffffffffffffffffff1681565b6000600260009054906101000a900460ff16905090565b611227611c86565b151561129b576040517f08c379a00000000000000000000000000000000000000000000000000000000081526004018080602001828103825260208152602001807f4f776e61626c653a2063616c6c6572206973206e6f7420746865206f776e657281525060200191505060405180910390fd5b60068111151515611314576040517f08c379a000000000000000000000000000000000000000000000000000000000815260040180806020018281038252601d8152602001807f726174652073686f756c64206265206e6f206d6f7265207468616e203600000081525060200191505060405180910390fd5b8060038190555050565b6000600a60003373ffffffffffffffffffffffffffffffffffffffff1673ffffffffffffffffffffffffffffffffffffffff16815260200190815260200160002060009054906101000a900460ff1615156113e1576040517f08c379a00000000000000000000000000000000000000000000000000000000081526004018080602001828103825260158152602001807f596f75206d75737420666972737420656e726f6c6c000000000000000000000081525060200191505060405180910390fd5b6000600960003373ffffffffffffffffffffffffffffffffffffffff1673ffffffffffffffffffffffffffffffffffffffff1681526020019081526020016000205490506000600960003373ffffffffffffffffffffffffffffffffffffffff1673ffffffffffffffffffffffffffffffffffffffff168152602001908152602001600020819055506000600a60003373ffffffffffffffffffffffffffffffffffffffff1673ffffffffffffffffffffffffffffffffffffffff16815260200190815260200160002060006101000a81548160ff0219169083151502179055506000811115611513573373ffffffffffffffffffffffffffffffffffffffff166108fc829081150290604051600060405180830381858888f19350505050158015611511573d6000803e3d6000fd5b505b3373ffffffffffffffffffffffffffffffffffffffff167f7aada01f2a633efb947ddd92f84368215074ce99a5f64c26640f254736b2f256826040518082815260200191505060405180910390a2600a60003373ffffffffffffffffffffffffffffffffffffffff1673ffffffffffffffffffffffffffffffffffffffff16815260200190815260200160002060009054906101000a900460ff161591505090565b6115be33612a21565b565b60006115ca611c86565b151561163e576040517f08c379a00000000000000000000000000000000000000000000000000000000081526004018080602001828103825260208152602001807f4f776e61626c653a2063616c6c6572206973206e6f7420746865206f776e657281525060200191505060405180910390fd5b3073ffffffffffffffffffffffffffffffffffffffff1631905090565b611663611c86565b15156116d7576040517f08c379a00000000000000000000000000000000000000000000000000000000081526004018080602001828103825260208152602001807f4f776e61626c653a2063616c6c6572206973206e6f7420746865206f776e657281525060200191505060405180910390fd5b600073ffffffffffffffffffffffffffffffffffffffff166000809054906101000a900473ffffffffffffffffffffffffffffffffffffffff1673ffffffffffffffffffffffffffffffffffffffff167f8be0079c531659141344cd1fd0a4f28419497f9722a3daafe3b4186f6b6457e060405160405180910390a360008060006101000a81548173ffffffffffffffffffffffffffffffffffffffff021916908373ffffffffffffffffffffffffffffffffffffffff160217905550565b60035481565b6117a5336111c5565b151561183f576040517f08c379a00000000000000000000000000000000000000000000000000000000081526004018080602001828103825260308152602001807f506175736572526f6c653a2063616c6c657220646f6573206e6f74206861766581526020017f207468652050617573657220726f6c650000000000000000000000000000000081525060400191505060405180910390fd5b61184881612a7b565b50565b611854336111c5565b15156118ee576040517f08c379a00000000000000000000000000000000000000000000000000000000081526004018080602001828103825260308152602001807f506175736572526f6c653a2063616c6c657220646f6573206e6f74206861766581526020017f207468652050617573657220726f6c650000000000000000000000000000000081525060400191505060405180910390fd5b600260009054906101000a900460ff16151515611973576040517f08c379a00000000000000000000000000000000000000000000000000000000081526004018080602001828103825260108152602001807f5061757361626c653a207061757365640000000000000000000000000000000081525060200191505060405180910390fd5b6001600260006101000a81548160ff0219169083151502179055507f62e78cea01bee320cd4e420270b5ea74000d11b0c9f74754ebdbfc544b05a25833604051808273ffffffffffffffffffffffffffffffffffffffff1673ffffffffffffffffffffffffffffffffffffffff16815260200191505060405180910390a1565b60606119fd611c86565b1515611a71576040517f08c379a00000000000000000000000000000000000000000000000000000000081526004018080602001828103825260208152602001807f4f776e61626c653a2063616c6c6572206973206e6f7420746865206f776e657281525060200191505060405180910390fd5b6008805480602002602001604051908101604052809291908181526020018280548015611af357602002820191906000526020600020905b8160009054906101000a900473ffffffffffffffffffffffffffffffffffffffff1673ffffffffffffffffffffffffffffffffffffffff1681526020019060010190808311611aa9575b5050505050905090565b611b05611c86565b1515611b79576040517f08c379a00000000000000000000000000000000000000000000000000000000081526004018080602001828103825260208152602001807f4f776e61626c653a2063616c6c6572206973206e6f7420746865206f776e657281525060200191505060405180910390fd5b600260009054906101000a900460ff16151515611bfe576040517f08c379a00000000000000000000000000000000000000000000000000000000081526004018080602001828103825260108152602001807f5061757361626c653a207061757365640000000000000000000000000000000081525060200191505060405180910390fd5b600760009054906101000a900460ff1615611c5b576000600760006101000a81548160ff0219169083151502179055507fc71719f7239fd33565193a96ebb310019cc5d648542721948e1dda12eb7d1edb60405160405180910390a15b565b60008060009054906101000a900473ffffffffffffffffffffffffffffffffffffffff16905090565b60008060009054906101000a900473ffffffffffffffffffffffffffffffffffffffff1673ffffffffffffffffffffffffffffffffffffffff163373ffffffffffffffffffffffffffffffffffffffff1614905090565b6000611ce7611c86565b1515611d5b576040517f08c379a00000000000000000000000000000000000000000000000000000000081526004018080602001828103825260208152602001807f4f776e61626c653a2063616c6c6572206973206e6f7420746865206f776e657281525060200191505060405180910390fd5b600880549050905090565b60055481565b611d74611c86565b1515611de8576040517f08c379a00000000000000000000000000000000000000000000000000000000081526004018080602001828103825260208152602001807f4f776e61626c653a2063616c6c6572206973206e6f7420746865206f776e657281525060200191505060405180910390fd5b600081111515611e60576040517f08c379a00000000000000000000000000000000000000000000000000000000081526004018080602001828103825260208152602001807f62616c616e63652073686f756c642062652067726561746572207468616e203081525060200191505060405180910390fd5b8060048190555050565b6000600a60003373ffffffffffffffffffffffffffffffffffffffff1673ffffffffffffffffffffffffffffffffffffffff16815260200190815260200160002060009054906101000a900460ff161515611f2d576040517f08c379a00000000000000000000000000000000000000000000000000000000081526004018080602001828103825260158152602001807f596f75206d75737420666972737420656e726f6c6c000000000000000000000081525060200191505060405180910390fd5b600260009054906101000a900460ff16151515611fb2576040517f08c379a00000000000000000000000000000000000000000000000000000000081526004018080602001828103825260108152602001807f5061757361626c653a207061757365640000000000000000000000000000000081525060200191505060405180910390fd5b60003411151561202a576040517f08c379a000000000000000000000000000000000000000000000000000000000815260040180806020018281038252601e8152602001807f4465706f736974206d7573742062652067726561746572207468616e2030000081525060200191505060405180910390fd5b61207c34600960003373ffffffffffffffffffffffffffffffffffffffff1673ffffffffffffffffffffffffffffffffffffffff16815260200190815260200160002054612ad590919063ffffffff16565b600960003373ffffffffffffffffffffffffffffffffffffffff1673ffffffffffffffffffffffffffffffffffffffff16815260200190815260200160002081905550600960003373ffffffffffffffffffffffffffffffffffffffff1673ffffffffffffffffffffffffffffffffffffffff1681526020019081526020016000205490503373ffffffffffffffffffffffffffffffffffffffff167f2da466a7b24304f47e87fa2e1e5a81b9831ce54fec19055ce277ca2f39ba42c4346040518082815260200191505060405180910390a290565b600760009054906101000a900460ff1681565b60008073ffffffffffffffffffffffffffffffffffffffff163373ffffffffffffffffffffffffffffffffffffffff161415151561220b576040517f08c379a00000000000000000000000000000000000000000000000000000000081526004018080602001828103825260108152602001807f496e76616c696420616464726573732e0000000000000000000000000000000081525060200191505060405180910390fd5b600a60003373ffffffffffffffffffffffffffffffffffffffff1673ffffffffffffffffffffffffffffffffffffffff16815260200190815260200160002060009054906101000a900460ff161515156122cd576040517f08c379a00000000000000000000000000000000000000000000000000000000081526004018080602001828103825260118152602001807f416c726561647920656e726f6c6c65642e00000000000000000000000000000081525060200191505060405180910390fd5b600260009054906101000a900460ff16151515612352576040517f08c379a00000000000000000000000000000000000000000000000000000000081526004018080602001828103825260108152602001807f5061757361626c653a207061757365640000000000000000000000000000000081525060200191505060405180910390fd5b6001600a60003373ffffffffffffffffffffffffffffffffffffffff1673ffffffffffffffffffffffffffffffffffffffff16815260200190815260200160002060006101000a81548160ff02191690831515021790555060083390806001815401808255809150509060018203906000526020600020016000909192909190916101000a81548173ffffffffffffffffffffffffffffffffffffffff021916908373ffffffffffffffffffffffffffffffffffffffff16021790555050600a60003373ffffffffffffffffffffffffffffffffffffffff1673ffffffffffffffffffffffffffffffffffffffff16815260200190815260200160002060009054906101000a900460ff1690503373ffffffffffffffffffffffffffffffffffffffff167f6132d0e5700fe03060d64172a9ce706f525f7dfacb454a300ba78f4b50fc872260405160405180910390a290565b6000630da4b055905090565b6124b9611c86565b151561252d576040517f08c379a00000000000000000000000000000000000000000000000000000000081526004018080602001828103825260208152602001807f4f776e61626c653a2063616c6c6572206973206e6f7420746865206f776e657281525060200191505060405180910390fd5b61253681612b5f565b50565b60045481565b612547611c86565b15156125bb576040517f08c379a00000000000000000000000000000000000000000000000000000000081526004018080602001828103825260208152602001807f4f776e61626c653a2063616c6c6572206973206e6f7420746865206f776e657281525060200191505060405180910390fd5b600260009054906101000a900460ff16151515612640576040517f08c379a00000000000000000000000000000000000000000000000000000000081526004018080602001828103825260108152602001807f5061757361626c653a207061757365640000000000000000000000000000000081525060200191505060405180910390fd5b600760009054906101000a900460ff1615156126b5576001600760006101000a81548160ff0219169083151502179055507fb649edc74cd53433b79a1a19533b3da41388aced726877221cdcc8f62aa2e167600354600454604051808381526020018281526020019250505060405180910390a15b565b60008090505b6008805490508110156128375760006008828154811015156126db57fe5b9060005260206000200160009054906101000a900473ffffffffffffffffffffffffffffffffffffffff1690506000600960008373ffffffffffffffffffffffffffffffffffffffff1673ffffffffffffffffffffffffffffffffffffffff1681526020019081526020016000205490506000811415801561275f57506005548110155b1561282857600061277f618e946003548402612ce890919063ffffffff16565b90506127d381600960008673ffffffffffffffffffffffffffffffffffffffff1673ffffffffffffffffffffffffffffffffffffffff16815260200190815260200160002054612ad590919063ffffffff16565b600960008573ffffffffffffffffffffffffffffffffffffffff1673ffffffffffffffffffffffffffffffffffffffff1681526020019081526020016000208190555080600660008282540192505081905550505b505080806001019150506126bd565b507f53ba314319f9ad9ecc35e1a102b598107f143841d7d768534884a3b6909d4a156006546040518082815260200191505060405180910390a1565b60008282111515156128ed576040517f08c379a000000000000000000000000000000000000000000000000000000000815260040180806020018281038252601e8152602001807f536166654d6174683a207375627472616374696f6e206f766572666c6f77000081525060200191505060405180910390fd5b600082840390508091505092915050565b60008073ffffffffffffffffffffffffffffffffffffffff168273ffffffffffffffffffffffffffffffffffffffff16141515156129ca576040517f08c379a00000000000000000000000000000000000000000000000000000000081526004018080602001828103825260228152602001807f526f6c65733a206163636f756e7420697320746865207a65726f20616464726581526020017f737300000000000000000000000000000000000000000000000000000000000081525060400191505060405180910390fd5b8260000160008373ffffffffffffffffffffffffffffffffffffffff1673ffffffffffffffffffffffffffffffffffffffff16815260200190815260200160002060009054906101000a900460ff16905092915050565b612a35816001612d7b90919063ffffffff16565b8073ffffffffffffffffffffffffffffffffffffffff167fcd265ebaf09df2871cc7bd4133404a235ba12eff2041bb89d9c714a2621c7c7e60405160405180910390a250565b612a8f816001612e7d90919063ffffffff16565b8073ffffffffffffffffffffffffffffffffffffffff167f6719d08c1888103bea251a4ed56406bd0c3e69723c8a1686e017e7bbe159b6f860405160405180910390a250565b6000808284019050838110151515612b55576040517f08c379a000000000000000000000000000000000000000000000000000000000815260040180806020018281038252601b8152602001807f536166654d6174683a206164646974696f6e206f766572666c6f77000000000081525060200191505060405180910390fd5b8091505092915050565b600073ffffffffffffffffffffffffffffffffffffffff168173ffffffffffffffffffffffffffffffffffffffff1614151515612c2a576040517f08c379a00000000000000000000000000000000000000000000000000000000081526004018080602001828103825260268152602001807f4f776e61626c653a206e6577206f776e657220697320746865207a65726f206181526020017f646472657373000000000000000000000000000000000000000000000000000081525060400191505060405180910390fd5b8073ffffffffffffffffffffffffffffffffffffffff166000809054906101000a900473ffffffffffffffffffffffffffffffffffffffff1673ffffffffffffffffffffffffffffffffffffffff167f8be0079c531659141344cd1fd0a4f28419497f9722a3daafe3b4186f6b6457e060405160405180910390a3806000806101000a81548173ffffffffffffffffffffffffffffffffffffffff021916908373ffffffffffffffffffffffffffffffffffffffff16021790555050565b60008082111515612d61576040517f08c379a000000000000000000000000000000000000000000000000000000000815260040180806020018281038252601a8152602001807f536166654d6174683a206469766973696f6e206279207a65726f00000000000081525060200191505060405180910390fd5b60008284811515612d6e57fe5b0490508091505092915050565b612d8582826128fe565b1515612e1f576040517f08c379a00000000000000000000000000000000000000000000000000000000081526004018080602001828103825260218152602001807f526f6c65733a206163636f756e7420646f6573206e6f74206861766520726f6c81526020017f650000000000000000000000000000000000000000000000000000000000000081525060400191505060405180910390fd5b60008260000160008373ffffffffffffffffffffffffffffffffffffffff1673ffffffffffffffffffffffffffffffffffffffff16815260200190815260200160002060006101000a81548160ff0219169083151502179055505050565b612e8782826128fe565b151515612efc576040517f08c379a000000000000000000000000000000000000000000000000000000000815260040180806020018281038252601f8152602001807f526f6c65733a206163636f756e7420616c72656164792068617320726f6c650081525060200191505060405180910390fd5b60018260000160008373ffffffffffffffffffffffffffffffffffffffff1673ffffffffffffffffffffffffffffffffffffffff16815260200190815260200160002060006101000a81548160ff021916908315150217905550505056fea165627a7a723058207d049f7aec0b3427ebf3dfa888f17599634507737ee2492a04874b91125541bb0029",
  "source": "pragma solidity ^0.5.0;\r\n\r\nimport 'openzeppelin-solidity/contracts/ownership/Ownable.sol';\r\nimport 'openzeppelin-solidity/contracts/math/SafeMath.sol';\r\nimport 'openzeppelin-solidity/contracts/lifecycle/Pausable.sol';\r\nimport \"../contracts/Ilighthouse.sol\"; // Rhombus oracle\r\nimport \"../contracts/Lighthouse.sol\";\r\n\r\n/// @author David Noel\r\n/// @title A bank contract that pays its users interest on a daily basis.\r\ncontract SimpleBank is Ownable, Pausable, Searcher {\r\n    using SafeMath for uint256;\r\n\r\n    // State variables\r\n\r\n    // Bank interest rate\r\n    uint public interestRate = 3;\r\n    // Min balance required (USD) to start receiving interest payments.\r\n    uint public minBalanceUsd = 1;\r\n    // Eth equivalent of min balance (1eth ~ $320 USD 6/25/19)\r\n    uint public minBalanceEth = 3200000000000000;\r\n    // Total interest paid by bank to date\r\n    uint private totalInterestPaid;\r\n    // Are interest payments running?\r\n    bool public running;\r\n    // ETHUSD lighthouse oracle\r\n    ILighthouse  public myLighthouse;\r\n    // Array of users registered\r\n    address[] private accounts;\r\n    /* Protect our users balance from being viewable from other contracts. */\r\n    mapping (address => uint) private balances;\r\n    /* Getter function to allow contracts to be able to see if a user is enrolled. */\r\n    mapping (address => bool) public enrolled;\r\n\r\n    // Events\r\n\r\n    /* When a user signs up */\r\n    event Enrolled(address indexed accountAddress);\r\n    /* When a user makes a deposit */\r\n    event Deposited(address indexed accountAddress, uint amount);\r\n    /* When a user makes a withdrawal */\r\n    event Withdrawn(address indexed accountAddress, uint withdrawAmount, uint newBalance);\r\n    /* When a user closes their account */\r\n    event ClosedAccount(address indexed accountAddress, uint balanceAtClose);\r\n    event InterestPaymentStarted(uint _rate, uint _minBalanceRequired);\r\n    event InterestPaymentStopped();\r\n    event InterestPaid(uint _totalInterest);\r\n    event DataNotValid();   // for invalid oracle data\r\n\r\n    // Modifiers\r\n\r\n    modifier isEnrolled(){\r\n        require(enrolled[msg.sender], \"You must first enroll\");\r\n        _;\r\n    }\r\n\r\n    modifier checkEnroll(){\r\n        require(msg.sender != address(0),\"Invalid address.\");\r\n        require(!enrolled[msg.sender], \"Already enrolled.\");\r\n        _;\r\n    }\r\n\r\n    modifier checkWithdraw(uint withdrawAmount){\r\n        require(withdrawAmount > 0, \"Withrawal must be greater than 0\");\r\n        require(balances[msg.sender] >= withdrawAmount, \"Insufficient balance\");\r\n        require(address(this).balance >= balances[msg.sender],\"Bank doesn't have enough money.\");\r\n        _;\r\n    }\r\n\r\n    modifier onlyLighthouse {\r\n        require (msg.sender == address(myLighthouse), \"Unauthorised\");\r\n        _;\r\n    }\r\n\r\n    // Constructor\r\n\r\n    constructor(ILighthouse _myLighthouse) public {\r\n        myLighthouse = _myLighthouse;\r\n        startPayments();\r\n    }\r\n\r\n    // Functions\r\n\r\n    /// @notice Enroll a customer with the bank\r\n    /// @return The users enrolled status\r\n    function enroll() public checkEnroll whenNotPaused returns (bool _enrolled){\r\n        enrolled[msg.sender] = true;\r\n        accounts.push(msg.sender);\r\n        _enrolled = enrolled[msg.sender];\r\n        emit Enrolled(msg.sender);\r\n    }\r\n\r\n    /// @notice Deposit ether into bank\r\n    /// @return The balance of the user after the deposit is made\r\n    // Users should be enrolled before they can make deposits\r\n    function deposit() external payable isEnrolled whenNotPaused returns (uint _balance) {\r\n        require(msg.value > 0, \"Deposit must be greater than 0\");\r\n        balances[msg.sender] = balances[msg.sender].add(msg.value);\r\n        _balance = balances[msg.sender];\r\n        emit Deposited(msg.sender, msg.value);\r\n    }\r\n\r\n    /// @notice Withdraw ether from bank\r\n    /// @dev This does not return any excess ether sent to it\r\n    /// @param withdrawAmount amount you want to withdraw\r\n    /// @return The balance remaining for the user\r\n    // checks-effects-interaction pattern to prevent re-entrancy\r\n    function withdraw(uint withdrawAmount) external isEnrolled checkWithdraw(withdrawAmount) returns (uint _balance) {\r\n        balances[msg.sender] = balances[msg.sender].sub(withdrawAmount);\r\n        msg.sender.transfer(withdrawAmount);\r\n        _balance = balances[msg.sender];\r\n        emit Withdrawn(msg.sender, withdrawAmount, _balance);\r\n    }\r\n\r\n    /// @notice Close bank account and return all user's balance to them.\r\n    /// @return The enrolled status of the user.\r\n    // checks-effects-interaction pattern to prevent re-entrancy\r\n    function closeAccount() external isEnrolled returns (bool) {\r\n        uint totalBalance = balances[msg.sender];\r\n        balances[msg.sender] = 0;\r\n        enrolled[msg.sender] = false;\r\n        if(totalBalance > 0){\r\n            msg.sender.transfer(totalBalance);\r\n        }\r\n        emit ClosedAccount(msg.sender, totalBalance);\r\n        return !enrolled[msg.sender];\r\n    }\r\n\r\n    /// @notice Get account balance\r\n    /// @return The balance of the user (wei)\r\n    function getBalance() public view returns (uint) {\r\n        return balances[msg.sender];\r\n    }\r\n\r\n    /// @notice Get all registered accounts\r\n    /// @return Array of accounts\r\n    function getAccounts() public view onlyOwner returns (address[] memory) {\r\n        return accounts;\r\n    }\r\n\r\n    /// @notice Get total accounts\r\n    /// @return Account total\r\n    function getNumAccounts() public view onlyOwner returns (uint) {\r\n        return accounts.length;\r\n    }\r\n\r\n    /// @notice Get address of this contract\r\n    /// @return The contract address\r\n    function getContractAddress() public view returns (address) {\r\n        return address(this);\r\n    }\r\n\r\n    /// @notice Get contract balance\r\n    /// @return The balance of the contract\r\n    function getContractBalance() public view onlyOwner returns(uint) {\r\n        return address(this).balance;\r\n    }\r\n\r\n    function setInterestRate(uint _rate) public onlyOwner {\r\n        require(_rate <= 6, \"rate should be no more than 6\");\r\n        interestRate = _rate;\r\n    }\r\n\r\n    // set minimum deposit in USD\r\n    function setMinBalance(uint _minBalance) public onlyOwner {\r\n        require(_minBalance > 0, \"balance should be greater than 0\");\r\n        minBalanceUsd = _minBalance;\r\n    }\r\n\r\n    function startPayments() public onlyOwner whenNotPaused {\r\n        if(!running){\r\n        running = true;\r\n        emit InterestPaymentStarted(interestRate, minBalanceUsd);\r\n        }\r\n    }\r\n\r\n    function stopPayments() public onlyOwner whenNotPaused {\r\n        if(running){\r\n        running = false;\r\n        emit InterestPaymentStopped();\r\n        }\r\n    }\r\n\r\n    // Gets called everytime lighthouse data changes.\r\n    function poke() public onlyLighthouse whenNotPaused {\r\n        bool valid;\r\n        uint tenCents;\r\n        if (running) {\r\n            (tenCents, valid) = myLighthouse.peekData(); // get value in ETH of ten cents from Oracle\r\n            if (!valid) {\r\n                emit DataNotValid();\r\n                return;\r\n            }\r\n            minBalanceEth = tenCents * 10 * minBalanceUsd; // calculate 1 USD in Ether\r\n            payInterest();\r\n        }\r\n    }\r\n\r\n    function payInterest() private {\r\n        // WARN: This unbounded for loop is an anti-pattern\r\n        for (uint i = 0; i < accounts.length; i++) {\r\n            address customerAddress = accounts[i];\r\n            uint balance = balances[customerAddress]; // get customer balance in eth\r\n            if(balance != 0 && balance >= minBalanceEth){ // customer is eligible to get interest payments\r\n                uint interest = (balance * interestRate).div(36500);\r\n                balances[customerAddress] = balances[customerAddress].add(interest);\r\n                totalInterestPaid += interest;\r\n            }\r\n        }\r\n        emit InterestPaid(totalInterestPaid);\r\n    }\r\n\r\n    // Fallback function - Called if other functions don't match call or\r\n    // sent ether without data\r\n    function() external payable {\r\n        require(msg.data.length == 0, \"data sent with message\");\r\n        emit Deposited(msg.sender, msg.value);\r\n    }\r\n}",
  "sourcePath": "C:/Users/David/Documents/Projects/finalproject/simple-bank-exercise-atlanticstarr1/contracts/SimpleBank.sol",
  "compiler": {
    "name": "solc",
    "version": "0.5.0+commit.1d4f565a.Emscripten.clang"
  },
  "schemaVersion": "3.0.9",
  "updatedAt": "2019-06-26T02:40:32.430Z",
  "devdoc": {
    "methods": {
      "closeAccount()": {
        "return": "The enrolled status of the user."
      },
      "deposit()": {
        "return": "The balance of the user after the deposit is made"
      },
      "enroll()": {
        "return": "The users enrolled status"
      },
      "getAccounts()": {
        "return": "Array of accounts"
      },
      "getBalance()": {
        "return": "The balance of the user (wei)"
      },
      "getContractAddress()": {
        "return": "The contract address"
      },
      "getContractBalance()": {
        "return": "The balance of the contract"
      },
      "getNumAccounts()": {
        "return": "Account total"
      },
      "isOwner()": {
        "details": "Returns true if the caller is the current owner.\r"
      },
      "owner()": {
        "details": "Returns the address of the current owner.\r"
      },
      "pause()": {
        "details": "Called by a pauser to pause, triggers stopped state.\r"
      },
      "paused()": {
        "details": "Returns true if the contract is paused, and false otherwise.\r"
      },
      "renounceOwnership()": {
        "details": "Leaves the contract without owner. It will not be possible to call\r `onlyOwner` functions anymore. Can only be called by the current owner.\r      * > Note: Renouncing ownership will leave the contract without an owner,\r thereby removing any functionality that is only available to the owner.\r"
      },
      "transferOwnership(address)": {
        "details": "Transfers ownership of the contract to a new account (`newOwner`).\r Can only be called by the current owner.\r"
      },
      "unpause()": {
        "details": "Called by a pauser to unpause, returns to normal state.\r"
      },
      "withdraw(uint256)": {
        "return": "The balance remaining for the user"
      }
    },
    "title": "A bank contract that pays its users interest on a daily basis."
  },
  "userdoc": {
    "methods": {}
  }
}